{
  "_format": "hh-sol-artifact-1",
  "contractName": "CuadroToken",
  "sourceName": "contracts/Tokenizar_Obra.sol",
  "abi": [
    {
      "inputs": [
        {
          "internalType": "string",
          "name": "_nombreCuadro",
          "type": "string"
        },
        {
          "internalType": "string",
          "name": "_autor",
          "type": "string"
        },
        {
          "internalType": "string",
          "name": "_anioCreacion",
          "type": "string"
        },
        {
          "internalType": "address",
          "name": "_artista",
          "type": "address"
        },
        {
          "internalType": "address",
          "name": "_plataforma",
          "type": "address"
        },
        {
          "internalType": "uint256",
          "name": "_totalTokens",
          "type": "uint256"
        },
        {
          "internalType": "string",
          "name": "_tokenSymbol",
          "type": "string"
        }
      ],
      "stateMutability": "nonpayable",
      "type": "constructor"
    },
    {
      "inputs": [
        {
          "internalType": "address",
          "name": "spender",
          "type": "address"
        },
        {
          "internalType": "uint256",
          "name": "allowance",
          "type": "uint256"
        },
        {
          "internalType": "uint256",
          "name": "needed",
          "type": "uint256"
        }
      ],
      "name": "ERC20InsufficientAllowance",
      "type": "error"
    },
    {
      "inputs": [
        {
          "internalType": "address",
          "name": "sender",
          "type": "address"
        },
        {
          "internalType": "uint256",
          "name": "balance",
          "type": "uint256"
        },
        {
          "internalType": "uint256",
          "name": "needed",
          "type": "uint256"
        }
      ],
      "name": "ERC20InsufficientBalance",
      "type": "error"
    },
    {
      "inputs": [
        {
          "internalType": "address",
          "name": "approver",
          "type": "address"
        }
      ],
      "name": "ERC20InvalidApprover",
      "type": "error"
    },
    {
      "inputs": [
        {
          "internalType": "address",
          "name": "receiver",
          "type": "address"
        }
      ],
      "name": "ERC20InvalidReceiver",
      "type": "error"
    },
    {
      "inputs": [
        {
          "internalType": "address",
          "name": "sender",
          "type": "address"
        }
      ],
      "name": "ERC20InvalidSender",
      "type": "error"
    },
    {
      "inputs": [
        {
          "internalType": "address",
          "name": "spender",
          "type": "address"
        }
      ],
      "name": "ERC20InvalidSpender",
      "type": "error"
    },
    {
      "anonymous": false,
      "inputs": [
        {
          "indexed": true,
          "internalType": "address",
          "name": "owner",
          "type": "address"
        },
        {
          "indexed": true,
          "internalType": "address",
          "name": "spender",
          "type": "address"
        },
        {
          "indexed": false,
          "internalType": "uint256",
          "name": "value",
          "type": "uint256"
        }
      ],
      "name": "Approval",
      "type": "event"
    },
    {
      "anonymous": false,
      "inputs": [
        {
          "indexed": true,
          "internalType": "address",
          "name": "from",
          "type": "address"
        },
        {
          "indexed": true,
          "internalType": "address",
          "name": "to",
          "type": "address"
        },
        {
          "indexed": false,
          "internalType": "uint256",
          "name": "value",
          "type": "uint256"
        }
      ],
      "name": "Transfer",
      "type": "event"
    },
    {
      "inputs": [
        {
          "internalType": "address",
          "name": "owner",
          "type": "address"
        },
        {
          "internalType": "address",
          "name": "spender",
          "type": "address"
        }
      ],
      "name": "allowance",
      "outputs": [
        {
          "internalType": "uint256",
          "name": "",
          "type": "uint256"
        }
      ],
      "stateMutability": "view",
      "type": "function"
    },
    {
      "inputs": [],
      "name": "anioCreacion",
      "outputs": [
        {
          "internalType": "string",
          "name": "",
          "type": "string"
        }
      ],
      "stateMutability": "view",
      "type": "function"
    },
    {
      "inputs": [
        {
          "internalType": "address",
          "name": "spender",
          "type": "address"
        },
        {
          "internalType": "uint256",
          "name": "value",
          "type": "uint256"
        }
      ],
      "name": "approve",
      "outputs": [
        {
          "internalType": "bool",
          "name": "",
          "type": "bool"
        }
      ],
      "stateMutability": "nonpayable",
      "type": "function"
    },
    {
      "inputs": [],
      "name": "artista",
      "outputs": [
        {
          "internalType": "address",
          "name": "",
          "type": "address"
        }
      ],
      "stateMutability": "view",
      "type": "function"
    },
    {
      "inputs": [],
      "name": "autor",
      "outputs": [
        {
          "internalType": "string",
          "name": "",
          "type": "string"
        }
      ],
      "stateMutability": "view",
      "type": "function"
    },
    {
      "inputs": [
        {
          "internalType": "address",
          "name": "account",
          "type": "address"
        }
      ],
      "name": "balanceOf",
      "outputs": [
        {
          "internalType": "uint256",
          "name": "",
          "type": "uint256"
        }
      ],
      "stateMutability": "view",
      "type": "function"
    },
    {
      "inputs": [],
      "name": "decimals",
      "outputs": [
        {
          "internalType": "uint8",
          "name": "",
          "type": "uint8"
        }
      ],
      "stateMutability": "view",
      "type": "function"
    },
    {
      "inputs": [],
      "name": "name",
      "outputs": [
        {
          "internalType": "string",
          "name": "",
          "type": "string"
        }
      ],
      "stateMutability": "view",
      "type": "function"
    },
    {
      "inputs": [],
      "name": "nombreCuadro",
      "outputs": [
        {
          "internalType": "string",
          "name": "",
          "type": "string"
        }
      ],
      "stateMutability": "view",
      "type": "function"
    },
    {
      "inputs": [],
      "name": "plataforma",
      "outputs": [
        {
          "internalType": "address",
          "name": "",
          "type": "address"
        }
      ],
      "stateMutability": "view",
      "type": "function"
    },
    {
      "inputs": [],
      "name": "symbol",
      "outputs": [
        {
          "internalType": "string",
          "name": "",
          "type": "string"
        }
      ],
      "stateMutability": "view",
      "type": "function"
    },
    {
      "inputs": [],
      "name": "totalSupply",
      "outputs": [
        {
          "internalType": "uint256",
          "name": "",
          "type": "uint256"
        }
      ],
      "stateMutability": "view",
      "type": "function"
    },
    {
      "inputs": [
        {
          "internalType": "address",
          "name": "to",
          "type": "address"
        },
        {
          "internalType": "uint256",
          "name": "value",
          "type": "uint256"
        }
      ],
      "name": "transfer",
      "outputs": [
        {
          "internalType": "bool",
          "name": "",
          "type": "bool"
        }
      ],
      "stateMutability": "nonpayable",
      "type": "function"
    },
    {
      "inputs": [
        {
          "internalType": "address",
          "name": "from",
          "type": "address"
        },
        {
          "internalType": "address",
          "name": "to",
          "type": "address"
        },
        {
          "internalType": "uint256",
          "name": "value",
          "type": "uint256"
        }
      ],
      "name": "transferFrom",
      "outputs": [
        {
          "internalType": "bool",
          "name": "",
          "type": "bool"
        }
      ],
      "stateMutability": "nonpayable",
      "type": "function"
    }
  ],
  "bytecode": "0x60806040523480156200001157600080fd5b506040516200202c3803806200202c8339818101604052810190620000379190620006ea565b868181600390816200004a919062000a5a565b5080600490816200005c919062000a5a565b50505083600560006101000a81548173ffffffffffffffffffffffffffffffffffffffff021916908373ffffffffffffffffffffffffffffffffffffffff16021790555082600660006101000a81548173ffffffffffffffffffffffffffffffffffffffff021916908373ffffffffffffffffffffffffffffffffffffffff1602179055508660079081620000f2919062000a5a565b50856008908162000104919062000a5a565b50846009908162000116919062000a5a565b50600062000129620001f160201b60201c565b600a62000137919062000cd1565b8362000144919062000d22565b905060006064605a8362000159919062000d22565b62000165919062000d9c565b90506000818362000177919062000dd4565b9050620001ad600560009054906101000a900473ffffffffffffffffffffffffffffffffffffffff1683620001fa60201b60201c565b620001e1600660009054906101000a900473ffffffffffffffffffffffffffffffffffffffff1682620001fa60201b60201c565b5050505050505050505062000ee3565b60006012905090565b600073ffffffffffffffffffffffffffffffffffffffff168273ffffffffffffffffffffffffffffffffffffffff16036200026f5760006040517fec442f0500000000000000000000000000000000000000000000000000000000815260040162000266919062000e20565b60405180910390fd5b62000283600083836200028760201b60201c565b5050565b600073ffffffffffffffffffffffffffffffffffffffff168373ffffffffffffffffffffffffffffffffffffffff1603620002dd578060026000828254620002d0919062000e3d565b92505081905550620003b3565b60008060008573ffffffffffffffffffffffffffffffffffffffff1673ffffffffffffffffffffffffffffffffffffffff168152602001908152602001600020549050818110156200036c578381836040517fe450d38c000000000000000000000000000000000000000000000000000000008152600401620003639392919062000e89565b60405180910390fd5b8181036000808673ffffffffffffffffffffffffffffffffffffffff1673ffffffffffffffffffffffffffffffffffffffff16815260200190815260200160002081905550505b600073ffffffffffffffffffffffffffffffffffffffff168273ffffffffffffffffffffffffffffffffffffffff1603620003fe57806002600082825403925050819055506200044b565b806000808473ffffffffffffffffffffffffffffffffffffffff1673ffffffffffffffffffffffffffffffffffffffff168152602001908152602001600020600082825401925050819055505b8173ffffffffffffffffffffffffffffffffffffffff168373ffffffffffffffffffffffffffffffffffffffff167fddf252ad1be2c89b69c2b068fc378daa952ba7f163c4a11628f55a4df523b3ef83604051620004aa919062000ec6565b60405180910390a3505050565b6000604051905090565b600080fd5b600080fd5b600080fd5b600080fd5b6000601f19601f8301169050919050565b7f4e487b7100000000000000000000000000000000000000000000000000000000600052604160045260246000fd5b6200052082620004d5565b810181811067ffffffffffffffff82111715620005425762000541620004e6565b5b80604052505050565b600062000557620004b7565b905062000565828262000515565b919050565b600067ffffffffffffffff821115620005885762000587620004e6565b5b6200059382620004d5565b9050602081019050919050565b60005b83811015620005c0578082015181840152602081019050620005a3565b60008484015250505050565b6000620005e3620005dd846200056a565b6200054b565b905082815260208101848484011115620006025762000601620004d0565b5b6200060f848285620005a0565b509392505050565b600082601f8301126200062f576200062e620004cb565b5b815162000641848260208601620005cc565b91505092915050565b600073ffffffffffffffffffffffffffffffffffffffff82169050919050565b600062000677826200064a565b9050919050565b62000689816200066a565b81146200069557600080fd5b50565b600081519050620006a9816200067e565b92915050565b6000819050919050565b620006c481620006af565b8114620006d057600080fd5b50565b600081519050620006e481620006b9565b92915050565b600080600080600080600060e0888a0312156200070c576200070b620004c1565b5b600088015167ffffffffffffffff8111156200072d576200072c620004c6565b5b6200073b8a828b0162000617565b975050602088015167ffffffffffffffff8111156200075f576200075e620004c6565b5b6200076d8a828b0162000617565b965050604088015167ffffffffffffffff811115620007915762000790620004c6565b5b6200079f8a828b0162000617565b9550506060620007b28a828b0162000698565b9450506080620007c58a828b0162000698565b93505060a0620007d88a828b01620006d3565b92505060c088015167ffffffffffffffff811115620007fc57620007fb620004c6565b5b6200080a8a828b0162000617565b91505092959891949750929550565b600081519050919050565b7f4e487b7100000000000000000000000000000000000000000000000000000000600052602260045260246000fd5b600060028204905060018216806200086c57607f821691505b60208210810362000882576200088162000824565b5b50919050565b60008190508160005260206000209050919050565b60006020601f8301049050919050565b600082821b905092915050565b600060088302620008ec7fffffffffffffffffffffffffffffffffffffffffffffffffffffffffffffffff82620008ad565b620008f88683620008ad565b95508019841693508086168417925050509392505050565b6000819050919050565b60006200093b620009356200092f84620006af565b62000910565b620006af565b9050919050565b6000819050919050565b62000957836200091a565b6200096f620009668262000942565b848454620008ba565b825550505050565b600090565b6200098662000977565b620009938184846200094c565b505050565b5b81811015620009bb57620009af6000826200097c565b60018101905062000999565b5050565b601f82111562000a0a57620009d48162000888565b620009df846200089d565b81016020851015620009ef578190505b62000a07620009fe856200089d565b83018262000998565b50505b505050565b600082821c905092915050565b600062000a2f6000198460080262000a0f565b1980831691505092915050565b600062000a4a838362000a1c565b9150826002028217905092915050565b62000a658262000819565b67ffffffffffffffff81111562000a815762000a80620004e6565b5b62000a8d825462000853565b62000a9a828285620009bf565b600060209050601f83116001811462000ad2576000841562000abd578287015190505b62000ac9858262000a3c565b86555062000b39565b601f19841662000ae28662000888565b60005b8281101562000b0c5784890151825560018201915060208501945060208101905062000ae5565b8683101562000b2c578489015162000b28601f89168262000a1c565b8355505b6001600288020188555050505b505050505050565b7f4e487b7100000000000000000000000000000000000000000000000000000000600052601160045260246000fd5b60008160011c9050919050565b6000808291508390505b600185111562000bcf5780860481111562000ba75762000ba662000b41565b5b600185161562000bb75780820291505b808102905062000bc78562000b70565b945062000b87565b94509492505050565b60008262000bea576001905062000cbd565b8162000bfa576000905062000cbd565b816001811462000c13576002811462000c1e5762000c54565b600191505062000cbd565b60ff84111562000c335762000c3262000b41565b5b8360020a91508482111562000c4d5762000c4c62000b41565b5b5062000cbd565b5060208310610133831016604e8410600b841016171562000c8e5782820a90508381111562000c885762000c8762000b41565b5b62000cbd565b62000c9d848484600162000b7d565b9250905081840481111562000cb75762000cb662000b41565b5b81810290505b9392505050565b600060ff82169050919050565b600062000cde82620006af565b915062000ceb8362000cc4565b925062000d1a7fffffffffffffffffffffffffffffffffffffffffffffffffffffffffffffffff848462000bd8565b905092915050565b600062000d2f82620006af565b915062000d3c83620006af565b925082820262000d4c81620006af565b9150828204841483151762000d665762000d6562000b41565b5b5092915050565b7f4e487b7100000000000000000000000000000000000000000000000000000000600052601260045260246000fd5b600062000da982620006af565b915062000db683620006af565b92508262000dc95762000dc862000d6d565b5b828204905092915050565b600062000de182620006af565b915062000dee83620006af565b925082820390508181111562000e095762000e0862000b41565b5b92915050565b62000e1a816200066a565b82525050565b600060208201905062000e37600083018462000e0f565b92915050565b600062000e4a82620006af565b915062000e5783620006af565b925082820190508082111562000e725762000e7162000b41565b5b92915050565b62000e8381620006af565b82525050565b600060608201905062000ea0600083018662000e0f565b62000eaf602083018562000e78565b62000ebe604083018462000e78565b949350505050565b600060208201905062000edd600083018462000e78565b92915050565b6111398062000ef36000396000f3fe608060405234801561001057600080fd5b50600436106100ea5760003560e01c806370a082311161008c578063a9059cbb11610066578063a9059cbb14610251578063d925dbbe14610281578063dd62ed3e1461029f578063fb2f1a89146102cf576100ea565b806370a08231146101e557806395d89b41146102155780639f3619c314610233576100ea565b806318160ddd116100c857806318160ddd1461015b57806323b872dd14610179578063313ce567146101a95780635e422990146101c7576100ea565b80630694952d146100ef57806306fdde031461010d578063095ea7b31461012b575b600080fd5b6100f76102ed565b6040516101049190610d8d565b60405180910390f35b61011561037b565b6040516101229190610d8d565b60405180910390f35b61014560048036038101906101409190610e48565b61040d565b6040516101529190610ea3565b60405180910390f35b610163610430565b6040516101709190610ecd565b60405180910390f35b610193600480360381019061018e9190610ee8565b61043a565b6040516101a09190610ea3565b60405180910390f35b6101b1610469565b6040516101be9190610f57565b60405180910390f35b6101cf610472565b6040516101dc9190610d8d565b60405180910390f35b6101ff60048036038101906101fa9190610f72565b610500565b60405161020c9190610ecd565b60405180910390f35b61021d610548565b60405161022a9190610d8d565b60405180910390f35b61023b6105da565b6040516102489190610d8d565b60405180910390f35b61026b60048036038101906102669190610e48565b610668565b6040516102789190610ea3565b60405180910390f35b61028961068b565b6040516102969190610fae565b60405180910390f35b6102b960048036038101906102b49190610fc9565b6106b1565b6040516102c69190610ecd565b60405180910390f35b6102d7610738565b6040516102e49190610fae565b60405180910390f35b600880546102fa90611038565b80601f016020809104026020016040519081016040528092919081815260200182805461032690611038565b80156103735780601f1061034857610100808354040283529160200191610373565b820191906000526020600020905b81548152906001019060200180831161035657829003601f168201915b505050505081565b60606003805461038a90611038565b80601f01602080910402602001604051908101604052809291908181526020018280546103b690611038565b80156104035780601f106103d857610100808354040283529160200191610403565b820191906000526020600020905b8154815290600101906020018083116103e657829003601f168201915b5050505050905090565b60008061041861075e565b9050610425818585610766565b600191505092915050565b6000600254905090565b60008061044561075e565b9050610452858285610778565b61045d85858561080d565b60019150509392505050565b60006012905090565b6007805461047f90611038565b80601f01602080910402602001604051908101604052809291908181526020018280546104ab90611038565b80156104f85780601f106104cd576101008083540402835291602001916104f8565b820191906000526020600020905b8154815290600101906020018083116104db57829003601f168201915b505050505081565b60008060008373ffffffffffffffffffffffffffffffffffffffff1673ffffffffffffffffffffffffffffffffffffffff168152602001908152602001600020549050919050565b60606004805461055790611038565b80601f016020809104026020016040519081016040528092919081815260200182805461058390611038565b80156105d05780601f106105a5576101008083540402835291602001916105d0565b820191906000526020600020905b8154815290600101906020018083116105b357829003601f168201915b5050505050905090565b600980546105e790611038565b80601f016020809104026020016040519081016040528092919081815260200182805461061390611038565b80156106605780601f1061063557610100808354040283529160200191610660565b820191906000526020600020905b81548152906001019060200180831161064357829003601f168201915b505050505081565b60008061067361075e565b905061068081858561080d565b600191505092915050565b600560009054906101000a900473ffffffffffffffffffffffffffffffffffffffff1681565b6000600160008473ffffffffffffffffffffffffffffffffffffffff1673ffffffffffffffffffffffffffffffffffffffff16815260200190815260200160002060008373ffffffffffffffffffffffffffffffffffffffff1673ffffffffffffffffffffffffffffffffffffffff16815260200190815260200160002054905092915050565b600660009054906101000a900473ffffffffffffffffffffffffffffffffffffffff1681565b600033905090565b6107738383836001610901565b505050565b600061078484846106b1565b90507fffffffffffffffffffffffffffffffffffffffffffffffffffffffffffffffff81101561080757818110156107f7578281836040517ffb8f41b20000000000000000000000000000000000000000000000000000000081526004016107ee93929190611069565b60405180910390fd5b61080684848484036000610901565b5b50505050565b600073ffffffffffffffffffffffffffffffffffffffff168373ffffffffffffffffffffffffffffffffffffffff160361087f5760006040517f96c6fd1e0000000000000000000000000000000000000000000000000000000081526004016108769190610fae565b60405180910390fd5b600073ffffffffffffffffffffffffffffffffffffffff168273ffffffffffffffffffffffffffffffffffffffff16036108f15760006040517fec442f050000000000000000000000000000000000000000000000000000000081526004016108e89190610fae565b60405180910390fd5b6108fc838383610ad8565b505050565b600073ffffffffffffffffffffffffffffffffffffffff168473ffffffffffffffffffffffffffffffffffffffff16036109735760006040517fe602df0500000000000000000000000000000000000000000000000000000000815260040161096a9190610fae565b60405180910390fd5b600073ffffffffffffffffffffffffffffffffffffffff168373ffffffffffffffffffffffffffffffffffffffff16036109e55760006040517f94280d620000000000000000000000000000000000000000000000000000000081526004016109dc9190610fae565b60405180910390fd5b81600160008673ffffffffffffffffffffffffffffffffffffffff1673ffffffffffffffffffffffffffffffffffffffff16815260200190815260200160002060008573ffffffffffffffffffffffffffffffffffffffff1673ffffffffffffffffffffffffffffffffffffffff168152602001908152602001600020819055508015610ad2578273ffffffffffffffffffffffffffffffffffffffff168473ffffffffffffffffffffffffffffffffffffffff167f8c5be1e5ebec7d5bd14f71427d1e84f3dd0314c0f7b2291e5b200ac8c7c3b92584604051610ac99190610ecd565b60405180910390a35b50505050565b600073ffffffffffffffffffffffffffffffffffffffff168373ffffffffffffffffffffffffffffffffffffffff1603610b2a578060026000828254610b1e91906110cf565b92505081905550610bfd565b60008060008573ffffffffffffffffffffffffffffffffffffffff1673ffffffffffffffffffffffffffffffffffffffff16815260200190815260200160002054905081811015610bb6578381836040517fe450d38c000000000000000000000000000000000000000000000000000000008152600401610bad93929190611069565b60405180910390fd5b8181036000808673ffffffffffffffffffffffffffffffffffffffff1673ffffffffffffffffffffffffffffffffffffffff16815260200190815260200160002081905550505b600073ffffffffffffffffffffffffffffffffffffffff168273ffffffffffffffffffffffffffffffffffffffff1603610c465780600260008282540392505081905550610c93565b806000808473ffffffffffffffffffffffffffffffffffffffff1673ffffffffffffffffffffffffffffffffffffffff168152602001908152602001600020600082825401925050819055505b8173ffffffffffffffffffffffffffffffffffffffff168373ffffffffffffffffffffffffffffffffffffffff167fddf252ad1be2c89b69c2b068fc378daa952ba7f163c4a11628f55a4df523b3ef83604051610cf09190610ecd565b60405180910390a3505050565b600081519050919050565b600082825260208201905092915050565b60005b83811015610d37578082015181840152602081019050610d1c565b60008484015250505050565b6000601f19601f8301169050919050565b6000610d5f82610cfd565b610d698185610d08565b9350610d79818560208601610d19565b610d8281610d43565b840191505092915050565b60006020820190508181036000830152610da78184610d54565b905092915050565b600080fd5b600073ffffffffffffffffffffffffffffffffffffffff82169050919050565b6000610ddf82610db4565b9050919050565b610def81610dd4565b8114610dfa57600080fd5b50565b600081359050610e0c81610de6565b92915050565b6000819050919050565b610e2581610e12565b8114610e3057600080fd5b50565b600081359050610e4281610e1c565b92915050565b60008060408385031215610e5f57610e5e610daf565b5b6000610e6d85828601610dfd565b9250506020610e7e85828601610e33565b9150509250929050565b60008115159050919050565b610e9d81610e88565b82525050565b6000602082019050610eb86000830184610e94565b92915050565b610ec781610e12565b82525050565b6000602082019050610ee26000830184610ebe565b92915050565b600080600060608486031215610f0157610f00610daf565b5b6000610f0f86828701610dfd565b9350506020610f2086828701610dfd565b9250506040610f3186828701610e33565b9150509250925092565b600060ff82169050919050565b610f5181610f3b565b82525050565b6000602082019050610f6c6000830184610f48565b92915050565b600060208284031215610f8857610f87610daf565b5b6000610f9684828501610dfd565b91505092915050565b610fa881610dd4565b82525050565b6000602082019050610fc36000830184610f9f565b92915050565b60008060408385031215610fe057610fdf610daf565b5b6000610fee85828601610dfd565b9250506020610fff85828601610dfd565b9150509250929050565b7f4e487b7100000000000000000000000000000000000000000000000000000000600052602260045260246000fd5b6000600282049050600182168061105057607f821691505b60208210810361106357611062611009565b5b50919050565b600060608201905061107e6000830186610f9f565b61108b6020830185610ebe565b6110986040830184610ebe565b949350505050565b7f4e487b7100000000000000000000000000000000000000000000000000000000600052601160045260246000fd5b60006110da82610e12565b91506110e583610e12565b92508282019050808211156110fd576110fc6110a0565b5b9291505056fea2646970667358221220c587b71b4fa7fbda303309333027bd70755eddeb56f26215e309460c2217129264736f6c63430008180033",
  "linkReferences": {},
  "deployedLinkReferences": {}
}