{
  "_format": "hh-sol-artifact-1",
  "contractName": "CuadroToken",
  "sourceName": "contracts/Tokenizar_Obra.sol",
  "abi": [
    {
      "inputs": [
        {
          "internalType": "address",
          "name": "_artista",
          "type": "address"
        },
        {
          "internalType": "address",
          "name": "_plataforma",
          "type": "address"
        },
        {
          "internalType": "string",
          "name": "_nombreCuadro",
          "type": "string"
        },
        {
          "internalType": "string",
          "name": "_autor",
          "type": "string"
        },
        {
          "internalType": "string",
          "name": "_anioCreacion",
          "type": "string"
        },
        {
          "internalType": "string",
          "name": "_nombreToken",
          "type": "string"
        },
        {
          "internalType": "string",
          "name": "_simboloToken",
          "type": "string"
        }
      ],
      "stateMutability": "nonpayable",
      "type": "constructor"
    },
    {
      "inputs": [
        {
          "internalType": "address",
          "name": "spender",
          "type": "address"
        },
        {
          "internalType": "uint256",
          "name": "allowance",
          "type": "uint256"
        },
        {
          "internalType": "uint256",
          "name": "needed",
          "type": "uint256"
        }
      ],
      "name": "ERC20InsufficientAllowance",
      "type": "error"
    },
    {
      "inputs": [
        {
          "internalType": "address",
          "name": "sender",
          "type": "address"
        },
        {
          "internalType": "uint256",
          "name": "balance",
          "type": "uint256"
        },
        {
          "internalType": "uint256",
          "name": "needed",
          "type": "uint256"
        }
      ],
      "name": "ERC20InsufficientBalance",
      "type": "error"
    },
    {
      "inputs": [
        {
          "internalType": "address",
          "name": "approver",
          "type": "address"
        }
      ],
      "name": "ERC20InvalidApprover",
      "type": "error"
    },
    {
      "inputs": [
        {
          "internalType": "address",
          "name": "receiver",
          "type": "address"
        }
      ],
      "name": "ERC20InvalidReceiver",
      "type": "error"
    },
    {
      "inputs": [
        {
          "internalType": "address",
          "name": "sender",
          "type": "address"
        }
      ],
      "name": "ERC20InvalidSender",
      "type": "error"
    },
    {
      "inputs": [
        {
          "internalType": "address",
          "name": "spender",
          "type": "address"
        }
      ],
      "name": "ERC20InvalidSpender",
      "type": "error"
    },
    {
      "inputs": [
        {
          "internalType": "address",
          "name": "owner",
          "type": "address"
        }
      ],
      "name": "OwnableInvalidOwner",
      "type": "error"
    },
    {
      "inputs": [
        {
          "internalType": "address",
          "name": "account",
          "type": "address"
        }
      ],
      "name": "OwnableUnauthorizedAccount",
      "type": "error"
    },
    {
      "anonymous": false,
      "inputs": [
        {
          "indexed": true,
          "internalType": "address",
          "name": "owner",
          "type": "address"
        },
        {
          "indexed": true,
          "internalType": "address",
          "name": "spender",
          "type": "address"
        },
        {
          "indexed": false,
          "internalType": "uint256",
          "name": "value",
          "type": "uint256"
        }
      ],
      "name": "Approval",
      "type": "event"
    },
    {
      "anonymous": false,
      "inputs": [
        {
          "indexed": true,
          "internalType": "address",
          "name": "previousOwner",
          "type": "address"
        },
        {
          "indexed": true,
          "internalType": "address",
          "name": "newOwner",
          "type": "address"
        }
      ],
      "name": "OwnershipTransferred",
      "type": "event"
    },
    {
      "anonymous": false,
      "inputs": [
        {
          "indexed": true,
          "internalType": "address",
          "name": "from",
          "type": "address"
        },
        {
          "indexed": true,
          "internalType": "address",
          "name": "to",
          "type": "address"
        },
        {
          "indexed": false,
          "internalType": "uint256",
          "name": "value",
          "type": "uint256"
        }
      ],
      "name": "Transfer",
      "type": "event"
    },
    {
      "inputs": [
        {
          "internalType": "address",
          "name": "owner",
          "type": "address"
        },
        {
          "internalType": "address",
          "name": "spender",
          "type": "address"
        }
      ],
      "name": "allowance",
      "outputs": [
        {
          "internalType": "uint256",
          "name": "",
          "type": "uint256"
        }
      ],
      "stateMutability": "view",
      "type": "function"
    },
    {
      "inputs": [],
      "name": "anioCreacion",
      "outputs": [
        {
          "internalType": "string",
          "name": "",
          "type": "string"
        }
      ],
      "stateMutability": "view",
      "type": "function"
    },
    {
      "inputs": [
        {
          "internalType": "address",
          "name": "spender",
          "type": "address"
        },
        {
          "internalType": "uint256",
          "name": "value",
          "type": "uint256"
        }
      ],
      "name": "approve",
      "outputs": [
        {
          "internalType": "bool",
          "name": "",
          "type": "bool"
        }
      ],
      "stateMutability": "nonpayable",
      "type": "function"
    },
    {
      "inputs": [],
      "name": "artista",
      "outputs": [
        {
          "internalType": "address",
          "name": "",
          "type": "address"
        }
      ],
      "stateMutability": "view",
      "type": "function"
    },
    {
      "inputs": [],
      "name": "autor",
      "outputs": [
        {
          "internalType": "string",
          "name": "",
          "type": "string"
        }
      ],
      "stateMutability": "view",
      "type": "function"
    },
    {
      "inputs": [
        {
          "internalType": "address",
          "name": "account",
          "type": "address"
        }
      ],
      "name": "balanceOf",
      "outputs": [
        {
          "internalType": "uint256",
          "name": "",
          "type": "uint256"
        }
      ],
      "stateMutability": "view",
      "type": "function"
    },
    {
      "inputs": [
        {
          "internalType": "address",
          "name": "_nuevoPropietario",
          "type": "address"
        },
        {
          "internalType": "uint256",
          "name": "_cantidadTokens",
          "type": "uint256"
        }
      ],
      "name": "certificarPropiedad",
      "outputs": [],
      "stateMutability": "nonpayable",
      "type": "function"
    },
    {
      "inputs": [],
      "name": "decimals",
      "outputs": [
        {
          "internalType": "uint8",
          "name": "",
          "type": "uint8"
        }
      ],
      "stateMutability": "view",
      "type": "function"
    },
    {
      "inputs": [],
      "name": "distribuirTokensIniciales",
      "outputs": [],
      "stateMutability": "nonpayable",
      "type": "function"
    },
    {
      "inputs": [],
      "name": "name",
      "outputs": [
        {
          "internalType": "string",
          "name": "",
          "type": "string"
        }
      ],
      "stateMutability": "view",
      "type": "function"
    },
    {
      "inputs": [],
      "name": "nombreCuadro",
      "outputs": [
        {
          "internalType": "string",
          "name": "",
          "type": "string"
        }
      ],
      "stateMutability": "view",
      "type": "function"
    },
    {
      "inputs": [],
      "name": "owner",
      "outputs": [
        {
          "internalType": "address",
          "name": "",
          "type": "address"
        }
      ],
      "stateMutability": "view",
      "type": "function"
    },
    {
      "inputs": [],
      "name": "plataforma",
      "outputs": [
        {
          "internalType": "address",
          "name": "",
          "type": "address"
        }
      ],
      "stateMutability": "view",
      "type": "function"
    },
    {
      "inputs": [],
      "name": "renounceOwnership",
      "outputs": [],
      "stateMutability": "nonpayable",
      "type": "function"
    },
    {
      "inputs": [],
      "name": "symbol",
      "outputs": [
        {
          "internalType": "string",
          "name": "",
          "type": "string"
        }
      ],
      "stateMutability": "view",
      "type": "function"
    },
    {
      "inputs": [],
      "name": "totalSupply",
      "outputs": [
        {
          "internalType": "uint256",
          "name": "",
          "type": "uint256"
        }
      ],
      "stateMutability": "view",
      "type": "function"
    },
    {
      "inputs": [
        {
          "internalType": "address",
          "name": "to",
          "type": "address"
        },
        {
          "internalType": "uint256",
          "name": "value",
          "type": "uint256"
        }
      ],
      "name": "transfer",
      "outputs": [
        {
          "internalType": "bool",
          "name": "",
          "type": "bool"
        }
      ],
      "stateMutability": "nonpayable",
      "type": "function"
    },
    {
      "inputs": [
        {
          "internalType": "address",
          "name": "from",
          "type": "address"
        },
        {
          "internalType": "address",
          "name": "to",
          "type": "address"
        },
        {
          "internalType": "uint256",
          "name": "value",
          "type": "uint256"
        }
      ],
      "name": "transferFrom",
      "outputs": [
        {
          "internalType": "bool",
          "name": "",
          "type": "bool"
        }
      ],
      "stateMutability": "nonpayable",
      "type": "function"
    },
    {
      "inputs": [
        {
          "internalType": "address",
          "name": "newOwner",
          "type": "address"
        }
      ],
      "name": "transferOwnership",
      "outputs": [],
      "stateMutability": "nonpayable",
      "type": "function"
    }
  ],
  "bytecode": "0x60806040523480156200001157600080fd5b506040516200268f3803806200268f8339818101604052810190620000379190620007ad565b33828281600390816200004b919062000b46565b5080600490816200005d919062000b46565b505050600073ffffffffffffffffffffffffffffffffffffffff168173ffffffffffffffffffffffffffffffffffffffff1603620000d55760006040517f1e4fbdf7000000000000000000000000000000000000000000000000000000008152600401620000cc919062000c3e565b60405180910390fd5b620000e681620001ff60201b60201c565b5086600660006101000a81548173ffffffffffffffffffffffffffffffffffffffff021916908373ffffffffffffffffffffffffffffffffffffffff16021790555085600760006101000a81548173ffffffffffffffffffffffffffffffffffffffff021916908373ffffffffffffffffffffffffffffffffffffffff16021790555084600890816200017a919062000b46565b5083600990816200018c919062000b46565b5082600a90816200019e919062000b46565b506000620001b1620002c560201b60201c565b600a620001bf919062000deb565b612710620001ce919062000e3c565b9050620001f1620001e4620002ce60201b60201c565b82620002f860201b60201c565b505050505050505062000f2d565b6000600560009054906101000a900473ffffffffffffffffffffffffffffffffffffffff16905081600560006101000a81548173ffffffffffffffffffffffffffffffffffffffff021916908373ffffffffffffffffffffffffffffffffffffffff1602179055508173ffffffffffffffffffffffffffffffffffffffff168173ffffffffffffffffffffffffffffffffffffffff167f8be0079c531659141344cd1fd0a4f28419497f9722a3daafe3b4186f6b6457e060405160405180910390a35050565b60006012905090565b6000600560009054906101000a900473ffffffffffffffffffffffffffffffffffffffff16905090565b600073ffffffffffffffffffffffffffffffffffffffff168273ffffffffffffffffffffffffffffffffffffffff16036200036d5760006040517fec442f0500000000000000000000000000000000000000000000000000000000815260040162000364919062000c3e565b60405180910390fd5b62000381600083836200038560201b60201c565b5050565b600073ffffffffffffffffffffffffffffffffffffffff168373ffffffffffffffffffffffffffffffffffffffff1603620003db578060026000828254620003ce919062000e87565b92505081905550620004b1565b60008060008573ffffffffffffffffffffffffffffffffffffffff1673ffffffffffffffffffffffffffffffffffffffff168152602001908152602001600020549050818110156200046a578381836040517fe450d38c000000000000000000000000000000000000000000000000000000008152600401620004619392919062000ed3565b60405180910390fd5b8181036000808673ffffffffffffffffffffffffffffffffffffffff1673ffffffffffffffffffffffffffffffffffffffff16815260200190815260200160002081905550505b600073ffffffffffffffffffffffffffffffffffffffff168273ffffffffffffffffffffffffffffffffffffffff1603620004fc578060026000828254039250508190555062000549565b806000808473ffffffffffffffffffffffffffffffffffffffff1673ffffffffffffffffffffffffffffffffffffffff168152602001908152602001600020600082825401925050819055505b8173ffffffffffffffffffffffffffffffffffffffff168373ffffffffffffffffffffffffffffffffffffffff167fddf252ad1be2c89b69c2b068fc378daa952ba7f163c4a11628f55a4df523b3ef83604051620005a8919062000f10565b60405180910390a3505050565b6000604051905090565b600080fd5b600080fd5b600073ffffffffffffffffffffffffffffffffffffffff82169050919050565b6000620005f682620005c9565b9050919050565b6200060881620005e9565b81146200061457600080fd5b50565b6000815190506200062881620005fd565b92915050565b600080fd5b600080fd5b6000601f19601f8301169050919050565b7f4e487b7100000000000000000000000000000000000000000000000000000000600052604160045260246000fd5b620006838262000638565b810181811067ffffffffffffffff82111715620006a557620006a462000649565b5b80604052505050565b6000620006ba620005b5565b9050620006c8828262000678565b919050565b600067ffffffffffffffff821115620006eb57620006ea62000649565b5b620006f68262000638565b9050602081019050919050565b60005b838110156200072357808201518184015260208101905062000706565b60008484015250505050565b6000620007466200074084620006cd565b620006ae565b90508281526020810184848401111562000765576200076462000633565b5b6200077284828562000703565b509392505050565b600082601f8301126200079257620007916200062e565b5b8151620007a48482602086016200072f565b91505092915050565b600080600080600080600060e0888a031215620007cf57620007ce620005bf565b5b6000620007df8a828b0162000617565b9750506020620007f28a828b0162000617565b965050604088015167ffffffffffffffff811115620008165762000815620005c4565b5b620008248a828b016200077a565b955050606088015167ffffffffffffffff811115620008485762000847620005c4565b5b620008568a828b016200077a565b945050608088015167ffffffffffffffff8111156200087a5762000879620005c4565b5b620008888a828b016200077a565b93505060a088015167ffffffffffffffff811115620008ac57620008ab620005c4565b5b620008ba8a828b016200077a565b92505060c088015167ffffffffffffffff811115620008de57620008dd620005c4565b5b620008ec8a828b016200077a565b91505092959891949750929550565b600081519050919050565b7f4e487b7100000000000000000000000000000000000000000000000000000000600052602260045260246000fd5b600060028204905060018216806200094e57607f821691505b60208210810362000964576200096362000906565b5b50919050565b60008190508160005260206000209050919050565b60006020601f8301049050919050565b600082821b905092915050565b600060088302620009ce7fffffffffffffffffffffffffffffffffffffffffffffffffffffffffffffffff826200098f565b620009da86836200098f565b95508019841693508086168417925050509392505050565b6000819050919050565b6000819050919050565b600062000a2762000a2162000a1b84620009f2565b620009fc565b620009f2565b9050919050565b6000819050919050565b62000a438362000a06565b62000a5b62000a528262000a2e565b8484546200099c565b825550505050565b600090565b62000a7262000a63565b62000a7f81848462000a38565b505050565b5b8181101562000aa75762000a9b60008262000a68565b60018101905062000a85565b5050565b601f82111562000af65762000ac0816200096a565b62000acb846200097f565b8101602085101562000adb578190505b62000af362000aea856200097f565b83018262000a84565b50505b505050565b600082821c905092915050565b600062000b1b6000198460080262000afb565b1980831691505092915050565b600062000b36838362000b08565b9150826002028217905092915050565b62000b5182620008fb565b67ffffffffffffffff81111562000b6d5762000b6c62000649565b5b62000b79825462000935565b62000b8682828562000aab565b600060209050601f83116001811462000bbe576000841562000ba9578287015190505b62000bb5858262000b28565b86555062000c25565b601f19841662000bce866200096a565b60005b8281101562000bf85784890151825560018201915060208501945060208101905062000bd1565b8683101562000c18578489015162000c14601f89168262000b08565b8355505b6001600288020188555050505b505050505050565b62000c3881620005e9565b82525050565b600060208201905062000c55600083018462000c2d565b92915050565b7f4e487b7100000000000000000000000000000000000000000000000000000000600052601160045260246000fd5b60008160011c9050919050565b6000808291508390505b600185111562000ce95780860481111562000cc15762000cc062000c5b565b5b600185161562000cd15780820291505b808102905062000ce18562000c8a565b945062000ca1565b94509492505050565b60008262000d04576001905062000dd7565b8162000d14576000905062000dd7565b816001811462000d2d576002811462000d385762000d6e565b600191505062000dd7565b60ff84111562000d4d5762000d4c62000c5b565b5b8360020a91508482111562000d675762000d6662000c5b565b5b5062000dd7565b5060208310610133831016604e8410600b841016171562000da85782820a90508381111562000da25762000da162000c5b565b5b62000dd7565b62000db7848484600162000c97565b9250905081840481111562000dd15762000dd062000c5b565b5b81810290505b9392505050565b600060ff82169050919050565b600062000df882620009f2565b915062000e058362000dde565b925062000e347fffffffffffffffffffffffffffffffffffffffffffffffffffffffffffffffff848462000cf2565b905092915050565b600062000e4982620009f2565b915062000e5683620009f2565b925082820262000e6681620009f2565b9150828204841483151762000e805762000e7f62000c5b565b5b5092915050565b600062000e9482620009f2565b915062000ea183620009f2565b925082820190508082111562000ebc5762000ebb62000c5b565b5b92915050565b62000ecd81620009f2565b82525050565b600060608201905062000eea600083018662000c2d565b62000ef9602083018562000ec2565b62000f08604083018462000ec2565b949350505050565b600060208201905062000f27600083018462000ec2565b92915050565b6117528062000f3d6000396000f3fe608060405234801561001057600080fd5b50600436106101215760003560e01c8063715018a6116100ad578063a9059cbb11610071578063a9059cbb146102d6578063d925dbbe14610306578063dd62ed3e14610324578063f2fde38b14610354578063fb2f1a891461037057610121565b8063715018a6146102685780638a292d9f146102725780638da5cb5b1461027c57806395d89b411461029a5780639f3619c3146102b857610121565b80631dfc7a05116100f45780631dfc7a05146101b057806323b872dd146101cc578063313ce567146101fc5780635e4229901461021a57806370a082311461023857610121565b80630694952d1461012657806306fdde0314610144578063095ea7b31461016257806318160ddd14610192575b600080fd5b61012e61038e565b60405161013b9190611206565b60405180910390f35b61014c61041c565b6040516101599190611206565b60405180910390f35b61017c600480360381019061017791906112c1565b6104ae565b604051610189919061131c565b60405180910390f35b61019a6104d1565b6040516101a79190611346565b60405180910390f35b6101ca60048036038101906101c591906112c1565b6104db565b005b6101e660048036038101906101e19190611361565b61053c565b6040516101f3919061131c565b60405180910390f35b61020461056b565b60405161021191906113d0565b60405180910390f35b610222610574565b60405161022f9190611206565b60405180910390f35b610252600480360381019061024d91906113eb565b610602565b60405161025f9190611346565b60405180910390f35b61027061064a565b005b61027a61065e565b005b6102846107c4565b6040516102919190611427565b60405180910390f35b6102a26107ee565b6040516102af9190611206565b60405180910390f35b6102c0610880565b6040516102cd9190611206565b60405180910390f35b6102f060048036038101906102eb91906112c1565b61090e565b6040516102fd919061131c565b60405180910390f35b61030e610931565b60405161031b9190611427565b60405180910390f35b61033e60048036038101906103399190611442565b610957565b60405161034b9190611346565b60405180910390f35b61036e600480360381019061036991906113eb565b6109de565b005b610378610a64565b6040516103859190611427565b60405180910390f35b6009805461039b906114b1565b80601f01602080910402602001604051908101604052809291908181526020018280546103c7906114b1565b80156104145780601f106103e957610100808354040283529160200191610414565b820191906000526020600020905b8154815290600101906020018083116103f757829003601f168201915b505050505081565b60606003805461042b906114b1565b80601f0160208091040260200160405190810160405280929190818152602001828054610457906114b1565b80156104a45780601f10610479576101008083540402835291602001916104a4565b820191906000526020600020905b81548152906001019060200180831161048757829003601f168201915b5050505050905090565b6000806104b9610a8a565b90506104c6818585610a92565b600191505092915050565b6000600254905090565b6104e3610aa4565b60008111610526576040517f08c379a000000000000000000000000000000000000000000000000000000000815260040161051d9061152e565b60405180910390fd5b6105386105316107c4565b8383610b2b565b5050565b600080610547610a8a565b9050610554858285610c1f565b61055f858585610b2b565b60019150509392505050565b60006012905090565b60088054610581906114b1565b80601f01602080910402602001604051908101604052809291908181526020018280546105ad906114b1565b80156105fa5780601f106105cf576101008083540402835291602001916105fa565b820191906000526020600020905b8154815290600101906020018083116105dd57829003601f168201915b505050505081565b60008060008373ffffffffffffffffffffffffffffffffffffffff1673ffffffffffffffffffffffffffffffffffffffff168152602001908152602001600020549050919050565b610652610aa4565b61065c6000610cb4565b565b610666610aa4565b6000610693600660009054906101000a900473ffffffffffffffffffffffffffffffffffffffff16610602565b1480156106ca575060006106c8600760009054906101000a900473ffffffffffffffffffffffffffffffffffffffff16610602565b145b610709576040517f08c379a0000000000000000000000000000000000000000000000000000000008152600401610700906115c0565b60405180910390fd5b600061071b6107166107c4565b610602565b905060006064603c8361072e919061160f565b6107389190611680565b905060006064600a8461074b919061160f565b6107559190611680565b905061078b6107626107c4565b600660009054906101000a900473ffffffffffffffffffffffffffffffffffffffff1684610b2b565b6107bf6107966107c4565b600760009054906101000a900473ffffffffffffffffffffffffffffffffffffffff1683610b2b565b505050565b6000600560009054906101000a900473ffffffffffffffffffffffffffffffffffffffff16905090565b6060600480546107fd906114b1565b80601f0160208091040260200160405190810160405280929190818152602001828054610829906114b1565b80156108765780601f1061084b57610100808354040283529160200191610876565b820191906000526020600020905b81548152906001019060200180831161085957829003601f168201915b5050505050905090565b600a805461088d906114b1565b80601f01602080910402602001604051908101604052809291908181526020018280546108b9906114b1565b80156109065780601f106108db57610100808354040283529160200191610906565b820191906000526020600020905b8154815290600101906020018083116108e957829003601f168201915b505050505081565b600080610919610a8a565b9050610926818585610b2b565b600191505092915050565b600660009054906101000a900473ffffffffffffffffffffffffffffffffffffffff1681565b6000600160008473ffffffffffffffffffffffffffffffffffffffff1673ffffffffffffffffffffffffffffffffffffffff16815260200190815260200160002060008373ffffffffffffffffffffffffffffffffffffffff1673ffffffffffffffffffffffffffffffffffffffff16815260200190815260200160002054905092915050565b6109e6610aa4565b600073ffffffffffffffffffffffffffffffffffffffff168173ffffffffffffffffffffffffffffffffffffffff1603610a585760006040517f1e4fbdf7000000000000000000000000000000000000000000000000000000008152600401610a4f9190611427565b60405180910390fd5b610a6181610cb4565b50565b600760009054906101000a900473ffffffffffffffffffffffffffffffffffffffff1681565b600033905090565b610a9f8383836001610d7a565b505050565b610aac610a8a565b73ffffffffffffffffffffffffffffffffffffffff16610aca6107c4565b73ffffffffffffffffffffffffffffffffffffffff1614610b2957610aed610a8a565b6040517f118cdaa7000000000000000000000000000000000000000000000000000000008152600401610b209190611427565b60405180910390fd5b565b600073ffffffffffffffffffffffffffffffffffffffff168373ffffffffffffffffffffffffffffffffffffffff1603610b9d5760006040517f96c6fd1e000000000000000000000000000000000000000000000000000000008152600401610b949190611427565b60405180910390fd5b600073ffffffffffffffffffffffffffffffffffffffff168273ffffffffffffffffffffffffffffffffffffffff1603610c0f5760006040517fec442f05000000000000000000000000000000000000000000000000000000008152600401610c069190611427565b60405180910390fd5b610c1a838383610f51565b505050565b6000610c2b8484610957565b90507fffffffffffffffffffffffffffffffffffffffffffffffffffffffffffffffff811015610cae5781811015610c9e578281836040517ffb8f41b2000000000000000000000000000000000000000000000000000000008152600401610c95939291906116b1565b60405180910390fd5b610cad84848484036000610d7a565b5b50505050565b6000600560009054906101000a900473ffffffffffffffffffffffffffffffffffffffff16905081600560006101000a81548173ffffffffffffffffffffffffffffffffffffffff021916908373ffffffffffffffffffffffffffffffffffffffff1602179055508173ffffffffffffffffffffffffffffffffffffffff168173ffffffffffffffffffffffffffffffffffffffff167f8be0079c531659141344cd1fd0a4f28419497f9722a3daafe3b4186f6b6457e060405160405180910390a35050565b600073ffffffffffffffffffffffffffffffffffffffff168473ffffffffffffffffffffffffffffffffffffffff1603610dec5760006040517fe602df05000000000000000000000000000000000000000000000000000000008152600401610de39190611427565b60405180910390fd5b600073ffffffffffffffffffffffffffffffffffffffff168373ffffffffffffffffffffffffffffffffffffffff1603610e5e5760006040517f94280d62000000000000000000000000000000000000000000000000000000008152600401610e559190611427565b60405180910390fd5b81600160008673ffffffffffffffffffffffffffffffffffffffff1673ffffffffffffffffffffffffffffffffffffffff16815260200190815260200160002060008573ffffffffffffffffffffffffffffffffffffffff1673ffffffffffffffffffffffffffffffffffffffff168152602001908152602001600020819055508015610f4b578273ffffffffffffffffffffffffffffffffffffffff168473ffffffffffffffffffffffffffffffffffffffff167f8c5be1e5ebec7d5bd14f71427d1e84f3dd0314c0f7b2291e5b200ac8c7c3b92584604051610f429190611346565b60405180910390a35b50505050565b600073ffffffffffffffffffffffffffffffffffffffff168373ffffffffffffffffffffffffffffffffffffffff1603610fa3578060026000828254610f9791906116e8565b92505081905550611076565b60008060008573ffffffffffffffffffffffffffffffffffffffff1673ffffffffffffffffffffffffffffffffffffffff1681526020019081526020016000205490508181101561102f578381836040517fe450d38c000000000000000000000000000000000000000000000000000000008152600401611026939291906116b1565b60405180910390fd5b8181036000808673ffffffffffffffffffffffffffffffffffffffff1673ffffffffffffffffffffffffffffffffffffffff16815260200190815260200160002081905550505b600073ffffffffffffffffffffffffffffffffffffffff168273ffffffffffffffffffffffffffffffffffffffff16036110bf578060026000828254039250508190555061110c565b806000808473ffffffffffffffffffffffffffffffffffffffff1673ffffffffffffffffffffffffffffffffffffffff168152602001908152602001600020600082825401925050819055505b8173ffffffffffffffffffffffffffffffffffffffff168373ffffffffffffffffffffffffffffffffffffffff167fddf252ad1be2c89b69c2b068fc378daa952ba7f163c4a11628f55a4df523b3ef836040516111699190611346565b60405180910390a3505050565b600081519050919050565b600082825260208201905092915050565b60005b838110156111b0578082015181840152602081019050611195565b60008484015250505050565b6000601f19601f8301169050919050565b60006111d882611176565b6111e28185611181565b93506111f2818560208601611192565b6111fb816111bc565b840191505092915050565b6000602082019050818103600083015261122081846111cd565b905092915050565b600080fd5b600073ffffffffffffffffffffffffffffffffffffffff82169050919050565b60006112588261122d565b9050919050565b6112688161124d565b811461127357600080fd5b50565b6000813590506112858161125f565b92915050565b6000819050919050565b61129e8161128b565b81146112a957600080fd5b50565b6000813590506112bb81611295565b92915050565b600080604083850312156112d8576112d7611228565b5b60006112e685828601611276565b92505060206112f7858286016112ac565b9150509250929050565b60008115159050919050565b61131681611301565b82525050565b6000602082019050611331600083018461130d565b92915050565b6113408161128b565b82525050565b600060208201905061135b6000830184611337565b92915050565b60008060006060848603121561137a57611379611228565b5b600061138886828701611276565b935050602061139986828701611276565b92505060406113aa868287016112ac565b9150509250925092565b600060ff82169050919050565b6113ca816113b4565b82525050565b60006020820190506113e560008301846113c1565b92915050565b60006020828403121561140157611400611228565b5b600061140f84828501611276565b91505092915050565b6114218161124d565b82525050565b600060208201905061143c6000830184611418565b92915050565b6000806040838503121561145957611458611228565b5b600061146785828601611276565b925050602061147885828601611276565b9150509250929050565b7f4e487b7100000000000000000000000000000000000000000000000000000000600052602260045260246000fd5b600060028204905060018216806114c957607f821691505b6020821081036114dc576114db611482565b5b50919050565b7f4e6f207365207075656465207472616e736665726972203020746f6b656e7300600082015250565b6000611518601f83611181565b9150611523826114e2565b602082019050919050565b600060208201905081810360008301526115478161150b565b9050919050565b7f4c6f7320746f6b656e732079612068616e207369646f2064697374726962756960008201527f646f732e00000000000000000000000000000000000000000000000000000000602082015250565b60006115aa602483611181565b91506115b58261154e565b604082019050919050565b600060208201905081810360008301526115d98161159d565b9050919050565b7f4e487b7100000000000000000000000000000000000000000000000000000000600052601160045260246000fd5b600061161a8261128b565b91506116258361128b565b92508282026116338161128b565b9150828204841483151761164a576116496115e0565b5b5092915050565b7f4e487b7100000000000000000000000000000000000000000000000000000000600052601260045260246000fd5b600061168b8261128b565b91506116968361128b565b9250826116a6576116a5611651565b5b828204905092915050565b60006060820190506116c66000830186611418565b6116d36020830185611337565b6116e06040830184611337565b949350505050565b60006116f38261128b565b91506116fe8361128b565b9250828201905080821115611716576117156115e0565b5b9291505056fea264697066735822122082b5261a5efe53e968a1f180ef5fc7bd1e59696b308bbe329dc40ac570d3157064736f6c63430008180033",
  "linkReferences": {},
  "deployedLinkReferences": {}
}