{
  "_format": "hh-sol-artifact-1",
  "contractName": "CuadroToken",
  "sourceName": "contracts/Tokenizar_Obra.sol",
  "abi": [
    {
      "inputs": [
        {
          "internalType": "string",
          "name": "_nombreCuadro",
          "type": "string"
        },
        {
          "internalType": "string",
          "name": "_autor",
          "type": "string"
        },
        {
          "internalType": "string",
          "name": "_anioCreacion",
          "type": "string"
        },
        {
          "internalType": "address",
          "name": "_artista",
          "type": "address"
        },
        {
          "internalType": "address",
          "name": "_plataforma",
          "type": "address"
        },
        {
          "internalType": "uint256",
          "name": "_totalTokens",
          "type": "uint256"
        },
        {
          "internalType": "string",
          "name": "_tokenSymbol",
          "type": "string"
        }
      ],
      "stateMutability": "nonpayable",
      "type": "constructor"
    },
    {
      "inputs": [
        {
          "internalType": "address",
          "name": "spender",
          "type": "address"
        },
        {
          "internalType": "uint256",
          "name": "allowance",
          "type": "uint256"
        },
        {
          "internalType": "uint256",
          "name": "needed",
          "type": "uint256"
        }
      ],
      "name": "ERC20InsufficientAllowance",
      "type": "error"
    },
    {
      "inputs": [
        {
          "internalType": "address",
          "name": "sender",
          "type": "address"
        },
        {
          "internalType": "uint256",
          "name": "balance",
          "type": "uint256"
        },
        {
          "internalType": "uint256",
          "name": "needed",
          "type": "uint256"
        }
      ],
      "name": "ERC20InsufficientBalance",
      "type": "error"
    },
    {
      "inputs": [
        {
          "internalType": "address",
          "name": "approver",
          "type": "address"
        }
      ],
      "name": "ERC20InvalidApprover",
      "type": "error"
    },
    {
      "inputs": [
        {
          "internalType": "address",
          "name": "receiver",
          "type": "address"
        }
      ],
      "name": "ERC20InvalidReceiver",
      "type": "error"
    },
    {
      "inputs": [
        {
          "internalType": "address",
          "name": "sender",
          "type": "address"
        }
      ],
      "name": "ERC20InvalidSender",
      "type": "error"
    },
    {
      "inputs": [
        {
          "internalType": "address",
          "name": "spender",
          "type": "address"
        }
      ],
      "name": "ERC20InvalidSpender",
      "type": "error"
    },
    {
      "inputs": [
        {
          "internalType": "address",
          "name": "owner",
          "type": "address"
        }
      ],
      "name": "OwnableInvalidOwner",
      "type": "error"
    },
    {
      "inputs": [
        {
          "internalType": "address",
          "name": "account",
          "type": "address"
        }
      ],
      "name": "OwnableUnauthorizedAccount",
      "type": "error"
    },
    {
      "anonymous": false,
      "inputs": [
        {
          "indexed": true,
          "internalType": "address",
          "name": "owner",
          "type": "address"
        },
        {
          "indexed": true,
          "internalType": "address",
          "name": "spender",
          "type": "address"
        },
        {
          "indexed": false,
          "internalType": "uint256",
          "name": "value",
          "type": "uint256"
        }
      ],
      "name": "Approval",
      "type": "event"
    },
    {
      "anonymous": false,
      "inputs": [
        {
          "indexed": true,
          "internalType": "address",
          "name": "previousOwner",
          "type": "address"
        },
        {
          "indexed": true,
          "internalType": "address",
          "name": "newOwner",
          "type": "address"
        }
      ],
      "name": "OwnershipTransferred",
      "type": "event"
    },
    {
      "anonymous": false,
      "inputs": [
        {
          "indexed": true,
          "internalType": "address",
          "name": "to",
          "type": "address"
        },
        {
          "indexed": false,
          "internalType": "uint256",
          "name": "amount",
          "type": "uint256"
        }
      ],
      "name": "TokensMinted",
      "type": "event"
    },
    {
      "anonymous": false,
      "inputs": [
        {
          "indexed": true,
          "internalType": "address",
          "name": "from",
          "type": "address"
        },
        {
          "indexed": true,
          "internalType": "address",
          "name": "to",
          "type": "address"
        },
        {
          "indexed": false,
          "internalType": "uint256",
          "name": "value",
          "type": "uint256"
        }
      ],
      "name": "Transfer",
      "type": "event"
    },
    {
      "inputs": [
        {
          "internalType": "address",
          "name": "owner",
          "type": "address"
        },
        {
          "internalType": "address",
          "name": "spender",
          "type": "address"
        }
      ],
      "name": "allowance",
      "outputs": [
        {
          "internalType": "uint256",
          "name": "",
          "type": "uint256"
        }
      ],
      "stateMutability": "view",
      "type": "function"
    },
    {
      "inputs": [],
      "name": "anioCreacion",
      "outputs": [
        {
          "internalType": "string",
          "name": "",
          "type": "string"
        }
      ],
      "stateMutability": "view",
      "type": "function"
    },
    {
      "inputs": [
        {
          "internalType": "address",
          "name": "spender",
          "type": "address"
        },
        {
          "internalType": "uint256",
          "name": "value",
          "type": "uint256"
        }
      ],
      "name": "approve",
      "outputs": [
        {
          "internalType": "bool",
          "name": "",
          "type": "bool"
        }
      ],
      "stateMutability": "nonpayable",
      "type": "function"
    },
    {
      "inputs": [],
      "name": "artista",
      "outputs": [
        {
          "internalType": "address",
          "name": "",
          "type": "address"
        }
      ],
      "stateMutability": "view",
      "type": "function"
    },
    {
      "inputs": [],
      "name": "autor",
      "outputs": [
        {
          "internalType": "string",
          "name": "",
          "type": "string"
        }
      ],
      "stateMutability": "view",
      "type": "function"
    },
    {
      "inputs": [
        {
          "internalType": "address",
          "name": "account",
          "type": "address"
        }
      ],
      "name": "balanceOf",
      "outputs": [
        {
          "internalType": "uint256",
          "name": "",
          "type": "uint256"
        }
      ],
      "stateMutability": "view",
      "type": "function"
    },
    {
      "inputs": [],
      "name": "decimals",
      "outputs": [
        {
          "internalType": "uint8",
          "name": "",
          "type": "uint8"
        }
      ],
      "stateMutability": "view",
      "type": "function"
    },
    {
      "inputs": [
        {
          "internalType": "address",
          "name": "_to",
          "type": "address"
        },
        {
          "internalType": "uint256",
          "name": "_amount",
          "type": "uint256"
        }
      ],
      "name": "enviarTokens",
      "outputs": [],
      "stateMutability": "nonpayable",
      "type": "function"
    },
    {
      "inputs": [],
      "name": "name",
      "outputs": [
        {
          "internalType": "string",
          "name": "",
          "type": "string"
        }
      ],
      "stateMutability": "view",
      "type": "function"
    },
    {
      "inputs": [],
      "name": "nombreCuadro",
      "outputs": [
        {
          "internalType": "string",
          "name": "",
          "type": "string"
        }
      ],
      "stateMutability": "view",
      "type": "function"
    },
    {
      "inputs": [],
      "name": "owner",
      "outputs": [
        {
          "internalType": "address",
          "name": "",
          "type": "address"
        }
      ],
      "stateMutability": "view",
      "type": "function"
    },
    {
      "inputs": [],
      "name": "plataforma",
      "outputs": [
        {
          "internalType": "address",
          "name": "",
          "type": "address"
        }
      ],
      "stateMutability": "view",
      "type": "function"
    },
    {
      "inputs": [],
      "name": "renounceOwnership",
      "outputs": [],
      "stateMutability": "nonpayable",
      "type": "function"
    },
    {
      "inputs": [],
      "name": "symbol",
      "outputs": [
        {
          "internalType": "string",
          "name": "",
          "type": "string"
        }
      ],
      "stateMutability": "view",
      "type": "function"
    },
    {
      "inputs": [],
      "name": "totalSupply",
      "outputs": [
        {
          "internalType": "uint256",
          "name": "",
          "type": "uint256"
        }
      ],
      "stateMutability": "view",
      "type": "function"
    },
    {
      "inputs": [
        {
          "internalType": "address",
          "name": "to",
          "type": "address"
        },
        {
          "internalType": "uint256",
          "name": "value",
          "type": "uint256"
        }
      ],
      "name": "transfer",
      "outputs": [
        {
          "internalType": "bool",
          "name": "",
          "type": "bool"
        }
      ],
      "stateMutability": "nonpayable",
      "type": "function"
    },
    {
      "inputs": [
        {
          "internalType": "address",
          "name": "from",
          "type": "address"
        },
        {
          "internalType": "address",
          "name": "to",
          "type": "address"
        },
        {
          "internalType": "uint256",
          "name": "value",
          "type": "uint256"
        }
      ],
      "name": "transferFrom",
      "outputs": [
        {
          "internalType": "bool",
          "name": "",
          "type": "bool"
        }
      ],
      "stateMutability": "nonpayable",
      "type": "function"
    },
    {
      "inputs": [
        {
          "internalType": "address",
          "name": "newOwner",
          "type": "address"
        }
      ],
      "name": "transferOwnership",
      "outputs": [],
      "stateMutability": "nonpayable",
      "type": "function"
    }
  ],
  "bytecode": "0x60806040523480156200001157600080fd5b50604051620028f1380380620028f1833981810160405281019062000037919062000a91565b33878281600390816200004b919062000e01565b5080600490816200005d919062000e01565b505050600073ffffffffffffffffffffffffffffffffffffffff168173ffffffffffffffffffffffffffffffffffffffff1603620000d55760006040517f1e4fbdf7000000000000000000000000000000000000000000000000000000008152600401620000cc919062000ef9565b60405180910390fd5b620000e681620004d260201b60201c565b50600073ffffffffffffffffffffffffffffffffffffffff168473ffffffffffffffffffffffffffffffffffffffff160362000159576040517f08c379a0000000000000000000000000000000000000000000000000000000008152600401620001509062000fc3565b60405180910390fd5b600073ffffffffffffffffffffffffffffffffffffffff168373ffffffffffffffffffffffffffffffffffffffff1603620001cb576040517f08c379a0000000000000000000000000000000000000000000000000000000008152600401620001c29062001081565b60405180910390fd5b83600660006101000a81548173ffffffffffffffffffffffffffffffffffffffff021916908373ffffffffffffffffffffffffffffffffffffffff16021790555082600760006101000a81548173ffffffffffffffffffffffffffffffffffffffff021916908373ffffffffffffffffffffffffffffffffffffffff16021790555086600890816200025e919062000e01565b50856009908162000270919062000e01565b5084600a908162000282919062000e01565b506000620002956200059860201b60201c565b600a620002a3919062001233565b83620002b0919062001284565b905060006064603c83620002c5919062001284565b620002d19190620012fe565b905060006064600a84620002e6919062001284565b620002f29190620012fe565b9050600081838562000305919062001336565b62000311919062001336565b905062000347600660009054906101000a900473ffffffffffffffffffffffffffffffffffffffff1684620005a160201b60201c565b600660009054906101000a900473ffffffffffffffffffffffffffffffffffffffff1673ffffffffffffffffffffffffffffffffffffffff167f3f2c9d57c068687834f0de942a9babb9e5acab57d516d3480a3c16ee165a427384604051620003b1919062001382565b60405180910390a2620003ed600760009054906101000a900473ffffffffffffffffffffffffffffffffffffffff1683620005a160201b60201c565b600760009054906101000a900473ffffffffffffffffffffffffffffffffffffffff1673ffffffffffffffffffffffffffffffffffffffff167f3f2c9d57c068687834f0de942a9babb9e5acab57d516d3480a3c16ee165a42738360405162000457919062001382565b60405180910390a2620004713082620005a160201b60201c565b3073ffffffffffffffffffffffffffffffffffffffff167f3f2c9d57c068687834f0de942a9babb9e5acab57d516d3480a3c16ee165a427382604051620004b9919062001382565b60405180910390a2505050505050505050505062001417565b6000600560009054906101000a900473ffffffffffffffffffffffffffffffffffffffff16905081600560006101000a81548173ffffffffffffffffffffffffffffffffffffffff021916908373ffffffffffffffffffffffffffffffffffffffff1602179055508173ffffffffffffffffffffffffffffffffffffffff168173ffffffffffffffffffffffffffffffffffffffff167f8be0079c531659141344cd1fd0a4f28419497f9722a3daafe3b4186f6b6457e060405160405180910390a35050565b60006012905090565b600073ffffffffffffffffffffffffffffffffffffffff168273ffffffffffffffffffffffffffffffffffffffff1603620006165760006040517fec442f050000000000000000000000000000000000000000000000000000000081526004016200060d919062000ef9565b60405180910390fd5b6200062a600083836200062e60201b60201c565b5050565b600073ffffffffffffffffffffffffffffffffffffffff168373ffffffffffffffffffffffffffffffffffffffff1603620006845780600260008282546200067791906200139f565b925050819055506200075a565b60008060008573ffffffffffffffffffffffffffffffffffffffff1673ffffffffffffffffffffffffffffffffffffffff1681526020019081526020016000205490508181101562000713578381836040517fe450d38c0000000000000000000000000000000000000000000000000000000081526004016200070a93929190620013da565b60405180910390fd5b8181036000808673ffffffffffffffffffffffffffffffffffffffff1673ffffffffffffffffffffffffffffffffffffffff16815260200190815260200160002081905550505b600073ffffffffffffffffffffffffffffffffffffffff168273ffffffffffffffffffffffffffffffffffffffff1603620007a55780600260008282540392505081905550620007f2565b806000808473ffffffffffffffffffffffffffffffffffffffff1673ffffffffffffffffffffffffffffffffffffffff168152602001908152602001600020600082825401925050819055505b8173ffffffffffffffffffffffffffffffffffffffff168373ffffffffffffffffffffffffffffffffffffffff167fddf252ad1be2c89b69c2b068fc378daa952ba7f163c4a11628f55a4df523b3ef8360405162000851919062001382565b60405180910390a3505050565b6000604051905090565b600080fd5b600080fd5b600080fd5b600080fd5b6000601f19601f8301169050919050565b7f4e487b7100000000000000000000000000000000000000000000000000000000600052604160045260246000fd5b620008c7826200087c565b810181811067ffffffffffffffff82111715620008e957620008e86200088d565b5b80604052505050565b6000620008fe6200085e565b90506200090c8282620008bc565b919050565b600067ffffffffffffffff8211156200092f576200092e6200088d565b5b6200093a826200087c565b9050602081019050919050565b60005b83811015620009675780820151818401526020810190506200094a565b60008484015250505050565b60006200098a620009848462000911565b620008f2565b905082815260208101848484011115620009a957620009a862000877565b5b620009b684828562000947565b509392505050565b600082601f830112620009d657620009d562000872565b5b8151620009e884826020860162000973565b91505092915050565b600073ffffffffffffffffffffffffffffffffffffffff82169050919050565b600062000a1e82620009f1565b9050919050565b62000a308162000a11565b811462000a3c57600080fd5b50565b60008151905062000a508162000a25565b92915050565b6000819050919050565b62000a6b8162000a56565b811462000a7757600080fd5b50565b60008151905062000a8b8162000a60565b92915050565b600080600080600080600060e0888a03121562000ab35762000ab262000868565b5b600088015167ffffffffffffffff81111562000ad45762000ad36200086d565b5b62000ae28a828b01620009be565b975050602088015167ffffffffffffffff81111562000b065762000b056200086d565b5b62000b148a828b01620009be565b965050604088015167ffffffffffffffff81111562000b385762000b376200086d565b5b62000b468a828b01620009be565b955050606062000b598a828b0162000a3f565b945050608062000b6c8a828b0162000a3f565b93505060a062000b7f8a828b0162000a7a565b92505060c088015167ffffffffffffffff81111562000ba35762000ba26200086d565b5b62000bb18a828b01620009be565b91505092959891949750929550565b600081519050919050565b7f4e487b7100000000000000000000000000000000000000000000000000000000600052602260045260246000fd5b6000600282049050600182168062000c1357607f821691505b60208210810362000c295762000c2862000bcb565b5b50919050565b60008190508160005260206000209050919050565b60006020601f8301049050919050565b600082821b905092915050565b60006008830262000c937fffffffffffffffffffffffffffffffffffffffffffffffffffffffffffffffff8262000c54565b62000c9f868362000c54565b95508019841693508086168417925050509392505050565b6000819050919050565b600062000ce262000cdc62000cd68462000a56565b62000cb7565b62000a56565b9050919050565b6000819050919050565b62000cfe8362000cc1565b62000d1662000d0d8262000ce9565b84845462000c61565b825550505050565b600090565b62000d2d62000d1e565b62000d3a81848462000cf3565b505050565b5b8181101562000d625762000d5660008262000d23565b60018101905062000d40565b5050565b601f82111562000db15762000d7b8162000c2f565b62000d868462000c44565b8101602085101562000d96578190505b62000dae62000da58562000c44565b83018262000d3f565b50505b505050565b600082821c905092915050565b600062000dd66000198460080262000db6565b1980831691505092915050565b600062000df1838362000dc3565b9150826002028217905092915050565b62000e0c8262000bc0565b67ffffffffffffffff81111562000e285762000e276200088d565b5b62000e34825462000bfa565b62000e4182828562000d66565b600060209050601f83116001811462000e79576000841562000e64578287015190505b62000e70858262000de3565b86555062000ee0565b601f19841662000e898662000c2f565b60005b8281101562000eb35784890151825560018201915060208501945060208101905062000e8c565b8683101562000ed3578489015162000ecf601f89168262000dc3565b8355505b6001600288020188555050505b505050505050565b62000ef38162000a11565b82525050565b600060208201905062000f10600083018462000ee8565b92915050565b600082825260208201905092915050565b7f43756164726f546f6b656e3a204c6120646972656363696f6e2064656c20617260008201527f7469737461206e6f20707565646520736572206c6120646972656363696f6e2060208201527f6365726f2e000000000000000000000000000000000000000000000000000000604082015250565b600062000fab60458362000f16565b915062000fb88262000f27565b606082019050919050565b6000602082019050818103600083015262000fde8162000f9c565b9050919050565b7f43756164726f546f6b656e3a204c6120646972656363696f6e206465206c612060008201527f706c617461666f726d61206e6f20707565646520736572206c6120646972656360208201527f63696f6e206365726f2e00000000000000000000000000000000000000000000604082015250565b600062001069604a8362000f16565b9150620010768262000fe5565b606082019050919050565b600060208201905081810360008301526200109c816200105a565b9050919050565b7f4e487b7100000000000000000000000000000000000000000000000000000000600052601160045260246000fd5b60008160011c9050919050565b6000808291508390505b60018511156200113157808604811115620011095762001108620010a3565b5b6001851615620011195780820291505b80810290506200112985620010d2565b9450620010e9565b94509492505050565b6000826200114c57600190506200121f565b816200115c57600090506200121f565b81600181146200117557600281146200118057620011b6565b60019150506200121f565b60ff841115620011955762001194620010a3565b5b8360020a915084821115620011af57620011ae620010a3565b5b506200121f565b5060208310610133831016604e8410600b8410161715620011f05782820a905083811115620011ea57620011e9620010a3565b5b6200121f565b620011ff8484846001620010df565b92509050818404811115620012195762001218620010a3565b5b81810290505b9392505050565b600060ff82169050919050565b6000620012408262000a56565b91506200124d8362001226565b92506200127c7fffffffffffffffffffffffffffffffffffffffffffffffffffffffffffffffff84846200113a565b905092915050565b6000620012918262000a56565b91506200129e8362000a56565b9250828202620012ae8162000a56565b91508282048414831517620012c857620012c7620010a3565b5b5092915050565b7f4e487b7100000000000000000000000000000000000000000000000000000000600052601260045260246000fd5b60006200130b8262000a56565b9150620013188362000a56565b9250826200132b576200132a620012cf565b5b828204905092915050565b6000620013438262000a56565b9150620013508362000a56565b92508282039050818111156200136b576200136a620010a3565b5b92915050565b6200137c8162000a56565b82525050565b600060208201905062001399600083018462001371565b92915050565b6000620013ac8262000a56565b9150620013b98362000a56565b9250828201905080821115620013d457620013d3620010a3565b5b92915050565b6000606082019050620013f1600083018662000ee8565b62001400602083018562001371565b6200140f604083018462001371565b949350505050565b6114ca80620014276000396000f3fe608060405234801561001057600080fd5b50600436106101165760003560e01c8063715018a6116100a2578063a9059cbb11610071578063a9059cbb146102c1578063d925dbbe146102f1578063dd62ed3e1461030f578063f2fde38b1461033f578063fb2f1a891461035b57610116565b8063715018a61461025d5780638da5cb5b1461026757806395d89b41146102855780639f3619c3146102a357610116565b806322a2b07f116100e957806322a2b07f146101a557806323b872dd146101c1578063313ce567146101f15780635e4229901461020f57806370a082311461022d57610116565b80630694952d1461011b57806306fdde0314610139578063095ea7b31461015757806318160ddd14610187575b600080fd5b610123610379565b604051610130919061108c565b60405180910390f35b610141610407565b60405161014e919061108c565b60405180910390f35b610171600480360381019061016c9190611147565b610499565b60405161017e91906111a2565b60405180910390f35b61018f6104bc565b60405161019c91906111cc565b60405180910390f35b6101bf60048036038101906101ba9190611147565b6104c6565b005b6101db60048036038101906101d691906111e7565b610528565b6040516101e891906111a2565b60405180910390f35b6101f9610557565b6040516102069190611256565b60405180910390f35b610217610560565b604051610224919061108c565b60405180910390f35b61024760048036038101906102429190611271565b6105ee565b60405161025491906111cc565b60405180910390f35b610265610636565b005b61026f61064a565b60405161027c91906112ad565b60405180910390f35b61028d610674565b60405161029a919061108c565b60405180910390f35b6102ab610706565b6040516102b8919061108c565b60405180910390f35b6102db60048036038101906102d69190611147565b610794565b6040516102e891906111a2565b60405180910390f35b6102f96107b7565b60405161030691906112ad565b60405180910390f35b610329600480360381019061032491906112c8565b6107dd565b60405161033691906111cc565b60405180910390f35b61035960048036038101906103549190611271565b610864565b005b6103636108ea565b60405161037091906112ad565b60405180910390f35b6009805461038690611337565b80601f01602080910402602001604051908101604052809291908181526020018280546103b290611337565b80156103ff5780601f106103d4576101008083540402835291602001916103ff565b820191906000526020600020905b8154815290600101906020018083116103e257829003601f168201915b505050505081565b60606003805461041690611337565b80601f016020809104026020016040519081016040528092919081815260200182805461044290611337565b801561048f5780601f106104645761010080835404028352916020019161048f565b820191906000526020600020905b81548152906001019060200180831161047257829003601f168201915b5050505050905090565b6000806104a4610910565b90506104b1818585610918565b600191505092915050565b6000600254905090565b6104ce61092a565b806104d8306105ee565b1015610519576040517f08c379a0000000000000000000000000000000000000000000000000000000008152600401610510906113da565b60405180910390fd5b6105243083836109b1565b5050565b600080610533610910565b9050610540858285610aa5565b61054b8585856109b1565b60019150509392505050565b60006012905090565b6008805461056d90611337565b80601f016020809104026020016040519081016040528092919081815260200182805461059990611337565b80156105e65780601f106105bb576101008083540402835291602001916105e6565b820191906000526020600020905b8154815290600101906020018083116105c957829003601f168201915b505050505081565b60008060008373ffffffffffffffffffffffffffffffffffffffff1673ffffffffffffffffffffffffffffffffffffffff168152602001908152602001600020549050919050565b61063e61092a565b6106486000610b3a565b565b6000600560009054906101000a900473ffffffffffffffffffffffffffffffffffffffff16905090565b60606004805461068390611337565b80601f01602080910402602001604051908101604052809291908181526020018280546106af90611337565b80156106fc5780601f106106d1576101008083540402835291602001916106fc565b820191906000526020600020905b8154815290600101906020018083116106df57829003601f168201915b5050505050905090565b600a805461071390611337565b80601f016020809104026020016040519081016040528092919081815260200182805461073f90611337565b801561078c5780601f106107615761010080835404028352916020019161078c565b820191906000526020600020905b81548152906001019060200180831161076f57829003601f168201915b505050505081565b60008061079f610910565b90506107ac8185856109b1565b600191505092915050565b600660009054906101000a900473ffffffffffffffffffffffffffffffffffffffff1681565b6000600160008473ffffffffffffffffffffffffffffffffffffffff1673ffffffffffffffffffffffffffffffffffffffff16815260200190815260200160002060008373ffffffffffffffffffffffffffffffffffffffff1673ffffffffffffffffffffffffffffffffffffffff16815260200190815260200160002054905092915050565b61086c61092a565b600073ffffffffffffffffffffffffffffffffffffffff168173ffffffffffffffffffffffffffffffffffffffff16036108de5760006040517f1e4fbdf70000000000000000000000000000000000000000000000000000000081526004016108d591906112ad565b60405180910390fd5b6108e781610b3a565b50565b600760009054906101000a900473ffffffffffffffffffffffffffffffffffffffff1681565b600033905090565b6109258383836001610c00565b505050565b610932610910565b73ffffffffffffffffffffffffffffffffffffffff1661095061064a565b73ffffffffffffffffffffffffffffffffffffffff16146109af57610973610910565b6040517f118cdaa70000000000000000000000000000000000000000000000000000000081526004016109a691906112ad565b60405180910390fd5b565b600073ffffffffffffffffffffffffffffffffffffffff168373ffffffffffffffffffffffffffffffffffffffff1603610a235760006040517f96c6fd1e000000000000000000000000000000000000000000000000000000008152600401610a1a91906112ad565b60405180910390fd5b600073ffffffffffffffffffffffffffffffffffffffff168273ffffffffffffffffffffffffffffffffffffffff1603610a955760006040517fec442f05000000000000000000000000000000000000000000000000000000008152600401610a8c91906112ad565b60405180910390fd5b610aa0838383610dd7565b505050565b6000610ab184846107dd565b90507fffffffffffffffffffffffffffffffffffffffffffffffffffffffffffffffff811015610b345781811015610b24578281836040517ffb8f41b2000000000000000000000000000000000000000000000000000000008152600401610b1b939291906113fa565b60405180910390fd5b610b3384848484036000610c00565b5b50505050565b6000600560009054906101000a900473ffffffffffffffffffffffffffffffffffffffff16905081600560006101000a81548173ffffffffffffffffffffffffffffffffffffffff021916908373ffffffffffffffffffffffffffffffffffffffff1602179055508173ffffffffffffffffffffffffffffffffffffffff168173ffffffffffffffffffffffffffffffffffffffff167f8be0079c531659141344cd1fd0a4f28419497f9722a3daafe3b4186f6b6457e060405160405180910390a35050565b600073ffffffffffffffffffffffffffffffffffffffff168473ffffffffffffffffffffffffffffffffffffffff1603610c725760006040517fe602df05000000000000000000000000000000000000000000000000000000008152600401610c6991906112ad565b60405180910390fd5b600073ffffffffffffffffffffffffffffffffffffffff168373ffffffffffffffffffffffffffffffffffffffff1603610ce45760006040517f94280d62000000000000000000000000000000000000000000000000000000008152600401610cdb91906112ad565b60405180910390fd5b81600160008673ffffffffffffffffffffffffffffffffffffffff1673ffffffffffffffffffffffffffffffffffffffff16815260200190815260200160002060008573ffffffffffffffffffffffffffffffffffffffff1673ffffffffffffffffffffffffffffffffffffffff168152602001908152602001600020819055508015610dd1578273ffffffffffffffffffffffffffffffffffffffff168473ffffffffffffffffffffffffffffffffffffffff167f8c5be1e5ebec7d5bd14f71427d1e84f3dd0314c0f7b2291e5b200ac8c7c3b92584604051610dc891906111cc565b60405180910390a35b50505050565b600073ffffffffffffffffffffffffffffffffffffffff168373ffffffffffffffffffffffffffffffffffffffff1603610e29578060026000828254610e1d9190611460565b92505081905550610efc565b60008060008573ffffffffffffffffffffffffffffffffffffffff1673ffffffffffffffffffffffffffffffffffffffff16815260200190815260200160002054905081811015610eb5578381836040517fe450d38c000000000000000000000000000000000000000000000000000000008152600401610eac939291906113fa565b60405180910390fd5b8181036000808673ffffffffffffffffffffffffffffffffffffffff1673ffffffffffffffffffffffffffffffffffffffff16815260200190815260200160002081905550505b600073ffffffffffffffffffffffffffffffffffffffff168273ffffffffffffffffffffffffffffffffffffffff1603610f455780600260008282540392505081905550610f92565b806000808473ffffffffffffffffffffffffffffffffffffffff1673ffffffffffffffffffffffffffffffffffffffff168152602001908152602001600020600082825401925050819055505b8173ffffffffffffffffffffffffffffffffffffffff168373ffffffffffffffffffffffffffffffffffffffff167fddf252ad1be2c89b69c2b068fc378daa952ba7f163c4a11628f55a4df523b3ef83604051610fef91906111cc565b60405180910390a3505050565b600081519050919050565b600082825260208201905092915050565b60005b8381101561103657808201518184015260208101905061101b565b60008484015250505050565b6000601f19601f8301169050919050565b600061105e82610ffc565b6110688185611007565b9350611078818560208601611018565b61108181611042565b840191505092915050565b600060208201905081810360008301526110a68184611053565b905092915050565b600080fd5b600073ffffffffffffffffffffffffffffffffffffffff82169050919050565b60006110de826110b3565b9050919050565b6110ee816110d3565b81146110f957600080fd5b50565b60008135905061110b816110e5565b92915050565b6000819050919050565b61112481611111565b811461112f57600080fd5b50565b6000813590506111418161111b565b92915050565b6000806040838503121561115e5761115d6110ae565b5b600061116c858286016110fc565b925050602061117d85828601611132565b9150509250929050565b60008115159050919050565b61119c81611187565b82525050565b60006020820190506111b76000830184611193565b92915050565b6111c681611111565b82525050565b60006020820190506111e160008301846111bd565b92915050565b600080600060608486031215611200576111ff6110ae565b5b600061120e868287016110fc565b935050602061121f868287016110fc565b925050604061123086828701611132565b9150509250925092565b600060ff82169050919050565b6112508161123a565b82525050565b600060208201905061126b6000830184611247565b92915050565b600060208284031215611287576112866110ae565b5b6000611295848285016110fc565b91505092915050565b6112a7816110d3565b82525050565b60006020820190506112c2600083018461129e565b92915050565b600080604083850312156112df576112de6110ae565b5b60006112ed858286016110fc565b92505060206112fe858286016110fc565b9150509250929050565b7f4e487b7100000000000000000000000000000000000000000000000000000000600052602260045260246000fd5b6000600282049050600182168061134f57607f821691505b60208210810361136257611361611308565b5b50919050565b7f456c20636f6e747261746f206e6f207469656e6520737566696369656e74657360008201527f20746f6b656e732e000000000000000000000000000000000000000000000000602082015250565b60006113c4602883611007565b91506113cf82611368565b604082019050919050565b600060208201905081810360008301526113f3816113b7565b9050919050565b600060608201905061140f600083018661129e565b61141c60208301856111bd565b61142960408301846111bd565b949350505050565b7f4e487b7100000000000000000000000000000000000000000000000000000000600052601160045260246000fd5b600061146b82611111565b915061147683611111565b925082820190508082111561148e5761148d611431565b5b9291505056fea264697066735822122047e2affbb5ae431b3c5c86204c3d443c3a9b383e57f5800c24753b31f214052d64736f6c63430008180033",
  "linkReferences": {},
  "deployedLinkReferences": {}
}