{
  "_format": "hh-sol-artifact-1",
  "contractName": "CuadroToken",
  "sourceName": "contracts/Tokenizar_Obra.sol",
  "abi": [
    {
      "inputs": [],
      "stateMutability": "nonpayable",
      "type": "constructor"
    },
    {
      "inputs": [
        {
          "internalType": "address",
          "name": "spender",
          "type": "address"
        },
        {
          "internalType": "uint256",
          "name": "allowance",
          "type": "uint256"
        },
        {
          "internalType": "uint256",
          "name": "needed",
          "type": "uint256"
        }
      ],
      "name": "ERC20InsufficientAllowance",
      "type": "error"
    },
    {
      "inputs": [
        {
          "internalType": "address",
          "name": "sender",
          "type": "address"
        },
        {
          "internalType": "uint256",
          "name": "balance",
          "type": "uint256"
        },
        {
          "internalType": "uint256",
          "name": "needed",
          "type": "uint256"
        }
      ],
      "name": "ERC20InsufficientBalance",
      "type": "error"
    },
    {
      "inputs": [
        {
          "internalType": "address",
          "name": "approver",
          "type": "address"
        }
      ],
      "name": "ERC20InvalidApprover",
      "type": "error"
    },
    {
      "inputs": [
        {
          "internalType": "address",
          "name": "receiver",
          "type": "address"
        }
      ],
      "name": "ERC20InvalidReceiver",
      "type": "error"
    },
    {
      "inputs": [
        {
          "internalType": "address",
          "name": "sender",
          "type": "address"
        }
      ],
      "name": "ERC20InvalidSender",
      "type": "error"
    },
    {
      "inputs": [
        {
          "internalType": "address",
          "name": "spender",
          "type": "address"
        }
      ],
      "name": "ERC20InvalidSpender",
      "type": "error"
    },
    {
      "anonymous": false,
      "inputs": [
        {
          "indexed": true,
          "internalType": "address",
          "name": "owner",
          "type": "address"
        },
        {
          "indexed": true,
          "internalType": "address",
          "name": "spender",
          "type": "address"
        },
        {
          "indexed": false,
          "internalType": "uint256",
          "name": "value",
          "type": "uint256"
        }
      ],
      "name": "Approval",
      "type": "event"
    },
    {
      "anonymous": false,
      "inputs": [
        {
          "indexed": true,
          "internalType": "address",
          "name": "from",
          "type": "address"
        },
        {
          "indexed": true,
          "internalType": "address",
          "name": "to",
          "type": "address"
        },
        {
          "indexed": false,
          "internalType": "uint256",
          "name": "value",
          "type": "uint256"
        }
      ],
      "name": "Transfer",
      "type": "event"
    },
    {
      "inputs": [
        {
          "internalType": "address",
          "name": "owner",
          "type": "address"
        },
        {
          "internalType": "address",
          "name": "spender",
          "type": "address"
        }
      ],
      "name": "allowance",
      "outputs": [
        {
          "internalType": "uint256",
          "name": "",
          "type": "uint256"
        }
      ],
      "stateMutability": "view",
      "type": "function"
    },
    {
      "inputs": [],
      "name": "anioCreacion",
      "outputs": [
        {
          "internalType": "string",
          "name": "",
          "type": "string"
        }
      ],
      "stateMutability": "view",
      "type": "function"
    },
    {
      "inputs": [
        {
          "internalType": "address",
          "name": "spender",
          "type": "address"
        },
        {
          "internalType": "uint256",
          "name": "value",
          "type": "uint256"
        }
      ],
      "name": "approve",
      "outputs": [
        {
          "internalType": "bool",
          "name": "",
          "type": "bool"
        }
      ],
      "stateMutability": "nonpayable",
      "type": "function"
    },
    {
      "inputs": [],
      "name": "artista",
      "outputs": [
        {
          "internalType": "address",
          "name": "",
          "type": "address"
        }
      ],
      "stateMutability": "view",
      "type": "function"
    },
    {
      "inputs": [],
      "name": "autor",
      "outputs": [
        {
          "internalType": "string",
          "name": "",
          "type": "string"
        }
      ],
      "stateMutability": "view",
      "type": "function"
    },
    {
      "inputs": [
        {
          "internalType": "address",
          "name": "account",
          "type": "address"
        }
      ],
      "name": "balanceOf",
      "outputs": [
        {
          "internalType": "uint256",
          "name": "",
          "type": "uint256"
        }
      ],
      "stateMutability": "view",
      "type": "function"
    },
    {
      "inputs": [],
      "name": "decimals",
      "outputs": [
        {
          "internalType": "uint8",
          "name": "",
          "type": "uint8"
        }
      ],
      "stateMutability": "view",
      "type": "function"
    },
    {
      "inputs": [],
      "name": "name",
      "outputs": [
        {
          "internalType": "string",
          "name": "",
          "type": "string"
        }
      ],
      "stateMutability": "view",
      "type": "function"
    },
    {
      "inputs": [],
      "name": "nombreCuadro",
      "outputs": [
        {
          "internalType": "string",
          "name": "",
          "type": "string"
        }
      ],
      "stateMutability": "view",
      "type": "function"
    },
    {
      "inputs": [],
      "name": "plataforma",
      "outputs": [
        {
          "internalType": "address",
          "name": "",
          "type": "address"
        }
      ],
      "stateMutability": "view",
      "type": "function"
    },
    {
      "inputs": [],
      "name": "symbol",
      "outputs": [
        {
          "internalType": "string",
          "name": "",
          "type": "string"
        }
      ],
      "stateMutability": "view",
      "type": "function"
    },
    {
      "inputs": [],
      "name": "totalSupply",
      "outputs": [
        {
          "internalType": "uint256",
          "name": "",
          "type": "uint256"
        }
      ],
      "stateMutability": "view",
      "type": "function"
    },
    {
      "inputs": [
        {
          "internalType": "address",
          "name": "to",
          "type": "address"
        },
        {
          "internalType": "uint256",
          "name": "value",
          "type": "uint256"
        }
      ],
      "name": "transfer",
      "outputs": [
        {
          "internalType": "bool",
          "name": "",
          "type": "bool"
        }
      ],
      "stateMutability": "nonpayable",
      "type": "function"
    },
    {
      "inputs": [
        {
          "internalType": "address",
          "name": "from",
          "type": "address"
        },
        {
          "internalType": "address",
          "name": "to",
          "type": "address"
        },
        {
          "internalType": "uint256",
          "name": "value",
          "type": "uint256"
        }
      ],
      "name": "transferFrom",
      "outputs": [
        {
          "internalType": "bool",
          "name": "",
          "type": "bool"
        }
      ],
      "stateMutability": "nonpayable",
      "type": "function"
    }
  ],
  "bytecode": "0x60806040523480156200001157600080fd5b506040518060400160405280600f81526020017f4d69204f627261206465204172746500000000000000000000000000000000008152506040518060400160405280600381526020017f415254000000000000000000000000000000000000000000000000000000000081525081600390816200008f919062000826565b508060049081620000a1919062000826565b505050600061dead9050600061dead905081600560006101000a81548173ffffffffffffffffffffffffffffffffffffffff021916908373ffffffffffffffffffffffffffffffffffffffff16021790555080600660006101000a81548173ffffffffffffffffffffffffffffffffffffffff021916908373ffffffffffffffffffffffffffffffffffffffff1602179055506040518060400160405280601081526020017f43756164726f2064652050727565626100000000000000000000000000000000815250600790816200017a919062000826565b506040518060400160405280601181526020017f417274697374612064652050727565626100000000000000000000000000000081525060089081620001c1919062000826565b506040518060400160405280600481526020017f32303235000000000000000000000000000000000000000000000000000000008152506009908162000208919062000826565b5060006103e89050600062000222620002e660201b60201c565b600a62000230919062000a9d565b826200023d919062000aee565b905060006064605a8362000252919062000aee565b6200025e919062000b68565b90506000818362000270919062000ba0565b9050620002a6600560009054906101000a900473ffffffffffffffffffffffffffffffffffffffff1683620002ef60201b60201c565b620002da600660009054906101000a900473ffffffffffffffffffffffffffffffffffffffff1682620002ef60201b60201c565b50505050505062000ce3565b60006012905090565b600073ffffffffffffffffffffffffffffffffffffffff168273ffffffffffffffffffffffffffffffffffffffff1603620003645760006040517fec442f050000000000000000000000000000000000000000000000000000000081526004016200035b919062000c20565b60405180910390fd5b62000378600083836200037c60201b60201c565b5050565b600073ffffffffffffffffffffffffffffffffffffffff168373ffffffffffffffffffffffffffffffffffffffff1603620003d2578060026000828254620003c5919062000c3d565b92505081905550620004a8565b60008060008573ffffffffffffffffffffffffffffffffffffffff1673ffffffffffffffffffffffffffffffffffffffff1681526020019081526020016000205490508181101562000461578381836040517fe450d38c000000000000000000000000000000000000000000000000000000008152600401620004589392919062000c89565b60405180910390fd5b8181036000808673ffffffffffffffffffffffffffffffffffffffff1673ffffffffffffffffffffffffffffffffffffffff16815260200190815260200160002081905550505b600073ffffffffffffffffffffffffffffffffffffffff168273ffffffffffffffffffffffffffffffffffffffff1603620004f3578060026000828254039250508190555062000540565b806000808473ffffffffffffffffffffffffffffffffffffffff1673ffffffffffffffffffffffffffffffffffffffff168152602001908152602001600020600082825401925050819055505b8173ffffffffffffffffffffffffffffffffffffffff168373ffffffffffffffffffffffffffffffffffffffff167fddf252ad1be2c89b69c2b068fc378daa952ba7f163c4a11628f55a4df523b3ef836040516200059f919062000cc6565b60405180910390a3505050565b600081519050919050565b7f4e487b7100000000000000000000000000000000000000000000000000000000600052604160045260246000fd5b7f4e487b7100000000000000000000000000000000000000000000000000000000600052602260045260246000fd5b600060028204905060018216806200062e57607f821691505b602082108103620006445762000643620005e6565b5b50919050565b60008190508160005260206000209050919050565b60006020601f8301049050919050565b600082821b905092915050565b600060088302620006ae7fffffffffffffffffffffffffffffffffffffffffffffffffffffffffffffffff826200066f565b620006ba86836200066f565b95508019841693508086168417925050509392505050565b6000819050919050565b6000819050919050565b60006200070762000701620006fb84620006d2565b620006dc565b620006d2565b9050919050565b6000819050919050565b6200072383620006e6565b6200073b62000732826200070e565b8484546200067c565b825550505050565b600090565b6200075262000743565b6200075f81848462000718565b505050565b5b8181101562000787576200077b60008262000748565b60018101905062000765565b5050565b601f821115620007d657620007a0816200064a565b620007ab846200065f565b81016020851015620007bb578190505b620007d3620007ca856200065f565b83018262000764565b50505b505050565b600082821c905092915050565b6000620007fb60001984600802620007db565b1980831691505092915050565b6000620008168383620007e8565b9150826002028217905092915050565b6200083182620005ac565b67ffffffffffffffff8111156200084d576200084c620005b7565b5b62000859825462000615565b620008668282856200078b565b600060209050601f8311600181146200089e576000841562000889578287015190505b62000895858262000808565b86555062000905565b601f198416620008ae866200064a565b60005b82811015620008d857848901518255600182019150602085019450602081019050620008b1565b86831015620008f85784890151620008f4601f891682620007e8565b8355505b6001600288020188555050505b505050505050565b7f4e487b7100000000000000000000000000000000000000000000000000000000600052601160045260246000fd5b60008160011c9050919050565b6000808291508390505b60018511156200099b578086048111156200097357620009726200090d565b5b6001851615620009835780820291505b808102905062000993856200093c565b945062000953565b94509492505050565b600082620009b6576001905062000a89565b81620009c6576000905062000a89565b8160018114620009df5760028114620009ea5762000a20565b600191505062000a89565b60ff841115620009ff57620009fe6200090d565b5b8360020a91508482111562000a195762000a186200090d565b5b5062000a89565b5060208310610133831016604e8410600b841016171562000a5a5782820a90508381111562000a545762000a536200090d565b5b62000a89565b62000a69848484600162000949565b9250905081840481111562000a835762000a826200090d565b5b81810290505b9392505050565b600060ff82169050919050565b600062000aaa82620006d2565b915062000ab78362000a90565b925062000ae67fffffffffffffffffffffffffffffffffffffffffffffffffffffffffffffffff8484620009a4565b905092915050565b600062000afb82620006d2565b915062000b0883620006d2565b925082820262000b1881620006d2565b9150828204841483151762000b325762000b316200090d565b5b5092915050565b7f4e487b7100000000000000000000000000000000000000000000000000000000600052601260045260246000fd5b600062000b7582620006d2565b915062000b8283620006d2565b92508262000b955762000b9462000b39565b5b828204905092915050565b600062000bad82620006d2565b915062000bba83620006d2565b925082820390508181111562000bd55762000bd46200090d565b5b92915050565b600073ffffffffffffffffffffffffffffffffffffffff82169050919050565b600062000c088262000bdb565b9050919050565b62000c1a8162000bfb565b82525050565b600060208201905062000c37600083018462000c0f565b92915050565b600062000c4a82620006d2565b915062000c5783620006d2565b925082820190508082111562000c725762000c716200090d565b5b92915050565b62000c8381620006d2565b82525050565b600060608201905062000ca0600083018662000c0f565b62000caf602083018562000c78565b62000cbe604083018462000c78565b949350505050565b600060208201905062000cdd600083018462000c78565b92915050565b6111398062000cf36000396000f3fe608060405234801561001057600080fd5b50600436106100ea5760003560e01c806370a082311161008c578063a9059cbb11610066578063a9059cbb14610251578063d925dbbe14610281578063dd62ed3e1461029f578063fb2f1a89146102cf576100ea565b806370a08231146101e557806395d89b41146102155780639f3619c314610233576100ea565b806318160ddd116100c857806318160ddd1461015b57806323b872dd14610179578063313ce567146101a95780635e422990146101c7576100ea565b80630694952d146100ef57806306fdde031461010d578063095ea7b31461012b575b600080fd5b6100f76102ed565b6040516101049190610d8d565b60405180910390f35b61011561037b565b6040516101229190610d8d565b60405180910390f35b61014560048036038101906101409190610e48565b61040d565b6040516101529190610ea3565b60405180910390f35b610163610430565b6040516101709190610ecd565b60405180910390f35b610193600480360381019061018e9190610ee8565b61043a565b6040516101a09190610ea3565b60405180910390f35b6101b1610469565b6040516101be9190610f57565b60405180910390f35b6101cf610472565b6040516101dc9190610d8d565b60405180910390f35b6101ff60048036038101906101fa9190610f72565b610500565b60405161020c9190610ecd565b60405180910390f35b61021d610548565b60405161022a9190610d8d565b60405180910390f35b61023b6105da565b6040516102489190610d8d565b60405180910390f35b61026b60048036038101906102669190610e48565b610668565b6040516102789190610ea3565b60405180910390f35b61028961068b565b6040516102969190610fae565b60405180910390f35b6102b960048036038101906102b49190610fc9565b6106b1565b6040516102c69190610ecd565b60405180910390f35b6102d7610738565b6040516102e49190610fae565b60405180910390f35b600880546102fa90611038565b80601f016020809104026020016040519081016040528092919081815260200182805461032690611038565b80156103735780601f1061034857610100808354040283529160200191610373565b820191906000526020600020905b81548152906001019060200180831161035657829003601f168201915b505050505081565b60606003805461038a90611038565b80601f01602080910402602001604051908101604052809291908181526020018280546103b690611038565b80156104035780601f106103d857610100808354040283529160200191610403565b820191906000526020600020905b8154815290600101906020018083116103e657829003601f168201915b5050505050905090565b60008061041861075e565b9050610425818585610766565b600191505092915050565b6000600254905090565b60008061044561075e565b9050610452858285610778565b61045d85858561080d565b60019150509392505050565b60006012905090565b6007805461047f90611038565b80601f01602080910402602001604051908101604052809291908181526020018280546104ab90611038565b80156104f85780601f106104cd576101008083540402835291602001916104f8565b820191906000526020600020905b8154815290600101906020018083116104db57829003601f168201915b505050505081565b60008060008373ffffffffffffffffffffffffffffffffffffffff1673ffffffffffffffffffffffffffffffffffffffff168152602001908152602001600020549050919050565b60606004805461055790611038565b80601f016020809104026020016040519081016040528092919081815260200182805461058390611038565b80156105d05780601f106105a5576101008083540402835291602001916105d0565b820191906000526020600020905b8154815290600101906020018083116105b357829003601f168201915b5050505050905090565b600980546105e790611038565b80601f016020809104026020016040519081016040528092919081815260200182805461061390611038565b80156106605780601f1061063557610100808354040283529160200191610660565b820191906000526020600020905b81548152906001019060200180831161064357829003601f168201915b505050505081565b60008061067361075e565b905061068081858561080d565b600191505092915050565b600560009054906101000a900473ffffffffffffffffffffffffffffffffffffffff1681565b6000600160008473ffffffffffffffffffffffffffffffffffffffff1673ffffffffffffffffffffffffffffffffffffffff16815260200190815260200160002060008373ffffffffffffffffffffffffffffffffffffffff1673ffffffffffffffffffffffffffffffffffffffff16815260200190815260200160002054905092915050565b600660009054906101000a900473ffffffffffffffffffffffffffffffffffffffff1681565b600033905090565b6107738383836001610901565b505050565b600061078484846106b1565b90507fffffffffffffffffffffffffffffffffffffffffffffffffffffffffffffffff81101561080757818110156107f7578281836040517ffb8f41b20000000000000000000000000000000000000000000000000000000081526004016107ee93929190611069565b60405180910390fd5b61080684848484036000610901565b5b50505050565b600073ffffffffffffffffffffffffffffffffffffffff168373ffffffffffffffffffffffffffffffffffffffff160361087f5760006040517f96c6fd1e0000000000000000000000000000000000000000000000000000000081526004016108769190610fae565b60405180910390fd5b600073ffffffffffffffffffffffffffffffffffffffff168273ffffffffffffffffffffffffffffffffffffffff16036108f15760006040517fec442f050000000000000000000000000000000000000000000000000000000081526004016108e89190610fae565b60405180910390fd5b6108fc838383610ad8565b505050565b600073ffffffffffffffffffffffffffffffffffffffff168473ffffffffffffffffffffffffffffffffffffffff16036109735760006040517fe602df0500000000000000000000000000000000000000000000000000000000815260040161096a9190610fae565b60405180910390fd5b600073ffffffffffffffffffffffffffffffffffffffff168373ffffffffffffffffffffffffffffffffffffffff16036109e55760006040517f94280d620000000000000000000000000000000000000000000000000000000081526004016109dc9190610fae565b60405180910390fd5b81600160008673ffffffffffffffffffffffffffffffffffffffff1673ffffffffffffffffffffffffffffffffffffffff16815260200190815260200160002060008573ffffffffffffffffffffffffffffffffffffffff1673ffffffffffffffffffffffffffffffffffffffff168152602001908152602001600020819055508015610ad2578273ffffffffffffffffffffffffffffffffffffffff168473ffffffffffffffffffffffffffffffffffffffff167f8c5be1e5ebec7d5bd14f71427d1e84f3dd0314c0f7b2291e5b200ac8c7c3b92584604051610ac99190610ecd565b60405180910390a35b50505050565b600073ffffffffffffffffffffffffffffffffffffffff168373ffffffffffffffffffffffffffffffffffffffff1603610b2a578060026000828254610b1e91906110cf565b92505081905550610bfd565b60008060008573ffffffffffffffffffffffffffffffffffffffff1673ffffffffffffffffffffffffffffffffffffffff16815260200190815260200160002054905081811015610bb6578381836040517fe450d38c000000000000000000000000000000000000000000000000000000008152600401610bad93929190611069565b60405180910390fd5b8181036000808673ffffffffffffffffffffffffffffffffffffffff1673ffffffffffffffffffffffffffffffffffffffff16815260200190815260200160002081905550505b600073ffffffffffffffffffffffffffffffffffffffff168273ffffffffffffffffffffffffffffffffffffffff1603610c465780600260008282540392505081905550610c93565b806000808473ffffffffffffffffffffffffffffffffffffffff1673ffffffffffffffffffffffffffffffffffffffff168152602001908152602001600020600082825401925050819055505b8173ffffffffffffffffffffffffffffffffffffffff168373ffffffffffffffffffffffffffffffffffffffff167fddf252ad1be2c89b69c2b068fc378daa952ba7f163c4a11628f55a4df523b3ef83604051610cf09190610ecd565b60405180910390a3505050565b600081519050919050565b600082825260208201905092915050565b60005b83811015610d37578082015181840152602081019050610d1c565b60008484015250505050565b6000601f19601f8301169050919050565b6000610d5f82610cfd565b610d698185610d08565b9350610d79818560208601610d19565b610d8281610d43565b840191505092915050565b60006020820190508181036000830152610da78184610d54565b905092915050565b600080fd5b600073ffffffffffffffffffffffffffffffffffffffff82169050919050565b6000610ddf82610db4565b9050919050565b610def81610dd4565b8114610dfa57600080fd5b50565b600081359050610e0c81610de6565b92915050565b6000819050919050565b610e2581610e12565b8114610e3057600080fd5b50565b600081359050610e4281610e1c565b92915050565b60008060408385031215610e5f57610e5e610daf565b5b6000610e6d85828601610dfd565b9250506020610e7e85828601610e33565b9150509250929050565b60008115159050919050565b610e9d81610e88565b82525050565b6000602082019050610eb86000830184610e94565b92915050565b610ec781610e12565b82525050565b6000602082019050610ee26000830184610ebe565b92915050565b600080600060608486031215610f0157610f00610daf565b5b6000610f0f86828701610dfd565b9350506020610f2086828701610dfd565b9250506040610f3186828701610e33565b9150509250925092565b600060ff82169050919050565b610f5181610f3b565b82525050565b6000602082019050610f6c6000830184610f48565b92915050565b600060208284031215610f8857610f87610daf565b5b6000610f9684828501610dfd565b91505092915050565b610fa881610dd4565b82525050565b6000602082019050610fc36000830184610f9f565b92915050565b60008060408385031215610fe057610fdf610daf565b5b6000610fee85828601610dfd565b9250506020610fff85828601610dfd565b9150509250929050565b7f4e487b7100000000000000000000000000000000000000000000000000000000600052602260045260246000fd5b6000600282049050600182168061105057607f821691505b60208210810361106357611062611009565b5b50919050565b600060608201905061107e6000830186610f9f565b61108b6020830185610ebe565b6110986040830184610ebe565b949350505050565b7f4e487b7100000000000000000000000000000000000000000000000000000000600052601160045260246000fd5b60006110da82610e12565b91506110e583610e12565b92508282019050808211156110fd576110fc6110a0565b5b9291505056fea26469706673582212205d8e18a0552f2cdfef534c44d7eb8b04ce295d262158a66401cddb49f8e6add564736f6c63430008180033",
  "linkReferences": {},
  "deployedLinkReferences": {}
}